{
  "contractName": "SupplyChain",
  "abi": [
    {
      "inputs": [
        {
          "internalType": "string",
          "name": "hash_lote",
          "type": "string"
        },
        {
          "internalType": "string",
          "name": "_id",
          "type": "string"
        },
        {
          "internalType": "uint256",
          "name": "_ganado",
          "type": "uint256"
        },
        {
          "internalType": "string",
          "name": "_lugar_crianza",
          "type": "string"
        },
        {
          "internalType": "string",
          "name": "_alimento",
          "type": "string"
        }
      ],
      "name": "setLote",
      "outputs": [],
      "stateMutability": "nonpayable",
      "type": "function"
    },
    {
      "inputs": [
        {
          "internalType": "string",
          "name": "hash_lote",
          "type": "string"
        }
      ],
      "name": "getLote",
      "outputs": [
        {
          "components": [
            {
              "internalType": "string",
              "name": "id_lote",
              "type": "string"
            },
            {
              "internalType": "string",
              "name": "lugar_crianza",
              "type": "string"
            },
            {
              "internalType": "string",
              "name": "alimento",
              "type": "string"
            },
            {
              "internalType": "uint256",
              "name": "ganado",
              "type": "uint256"
            },
            {
              "internalType": "bool",
              "name": "transportado",
              "type": "bool"
            },
            {
              "internalType": "bool",
              "name": "elaborado",
              "type": "bool"
            },
            {
              "components": [
                {
                  "internalType": "string",
                  "name": "lugar_origen",
                  "type": "string"
                },
                {
                  "internalType": "string",
                  "name": "lugar_destino",
                  "type": "string"
                },
                {
                  "internalType": "string",
                  "name": "fecha_transporte",
                  "type": "string"
                },
                {
                  "internalType": "string",
                  "name": "tiempo_transporte",
                  "type": "string"
                }
              ],
              "internalType": "struct SupplyChain.InfoTransporteGanado",
              "name": "info_transporte",
              "type": "tuple"
            },
            {
              "components": [
                {
                  "internalType": "string",
                  "name": "nombre_matadero",
                  "type": "string"
                },
                {
                  "internalType": "string",
                  "name": "temperatura",
                  "type": "string"
                },
                {
                  "internalType": "string",
                  "name": "humedad",
                  "type": "string"
                },
                {
                  "internalType": "string",
                  "name": "tiempo_elaboracion",
                  "type": "string"
                },
                {
                  "internalType": "string",
                  "name": "fecha_sacrificio",
                  "type": "string"
                },
                {
                  "internalType": "string",
                  "name": "hash_carne",
                  "type": "string"
                }
              ],
              "internalType": "struct SupplyChain.InfoElaboracionCarne",
              "name": "info_elaboracion",
              "type": "tuple"
            },
            {
              "internalType": "bool",
              "name": "init",
              "type": "bool"
            }
          ],
          "internalType": "struct SupplyChain.Lote",
          "name": "",
          "type": "tuple"
        }
      ],
      "stateMutability": "view",
      "type": "function"
    },
    {
      "inputs": [],
      "name": "getLotes",
      "outputs": [
        {
          "components": [
            {
              "internalType": "string",
              "name": "id_lote",
              "type": "string"
            },
            {
              "internalType": "string",
              "name": "lugar_crianza",
              "type": "string"
            },
            {
              "internalType": "string",
              "name": "alimento",
              "type": "string"
            },
            {
              "internalType": "uint256",
              "name": "ganado",
              "type": "uint256"
            },
            {
              "internalType": "bool",
              "name": "transportado",
              "type": "bool"
            },
            {
              "internalType": "bool",
              "name": "elaborado",
              "type": "bool"
            },
            {
              "components": [
                {
                  "internalType": "string",
                  "name": "lugar_origen",
                  "type": "string"
                },
                {
                  "internalType": "string",
                  "name": "lugar_destino",
                  "type": "string"
                },
                {
                  "internalType": "string",
                  "name": "fecha_transporte",
                  "type": "string"
                },
                {
                  "internalType": "string",
                  "name": "tiempo_transporte",
                  "type": "string"
                }
              ],
              "internalType": "struct SupplyChain.InfoTransporteGanado",
              "name": "info_transporte",
              "type": "tuple"
            },
            {
              "components": [
                {
                  "internalType": "string",
                  "name": "nombre_matadero",
                  "type": "string"
                },
                {
                  "internalType": "string",
                  "name": "temperatura",
                  "type": "string"
                },
                {
                  "internalType": "string",
                  "name": "humedad",
                  "type": "string"
                },
                {
                  "internalType": "string",
                  "name": "tiempo_elaboracion",
                  "type": "string"
                },
                {
                  "internalType": "string",
                  "name": "fecha_sacrificio",
                  "type": "string"
                },
                {
                  "internalType": "string",
                  "name": "hash_carne",
                  "type": "string"
                }
              ],
              "internalType": "struct SupplyChain.InfoElaboracionCarne",
              "name": "info_elaboracion",
              "type": "tuple"
            },
            {
              "internalType": "bool",
              "name": "init",
              "type": "bool"
            }
          ],
          "internalType": "struct SupplyChain.Lote[]",
          "name": "",
          "type": "tuple[]"
        }
      ],
      "stateMutability": "view",
      "type": "function"
    },
    {
      "inputs": [],
      "name": "getHashLotes",
      "outputs": [
        {
          "internalType": "string[]",
          "name": "",
          "type": "string[]"
        }
      ],
      "stateMutability": "view",
      "type": "function"
    },
    {
      "inputs": [
        {
          "internalType": "string",
          "name": "hash_lote",
          "type": "string"
        },
        {
          "internalType": "string",
          "name": "origen",
          "type": "string"
        },
        {
          "internalType": "string",
          "name": "destino",
          "type": "string"
        },
        {
          "internalType": "string",
          "name": "fecha",
          "type": "string"
        },
        {
          "internalType": "string",
          "name": "tiempo",
          "type": "string"
        }
      ],
      "name": "setInfoTransporte",
      "outputs": [],
      "stateMutability": "nonpayable",
      "type": "function"
    },
    {
      "inputs": [
        {
          "internalType": "string",
          "name": "hash_lote",
          "type": "string"
        },
        {
          "internalType": "string",
          "name": "matadero",
          "type": "string"
        },
        {
          "internalType": "string",
          "name": "_temperatura",
          "type": "string"
        },
        {
          "internalType": "string",
          "name": "_humedad",
          "type": "string"
        },
        {
          "internalType": "string",
          "name": "tiempo",
          "type": "string"
        },
        {
          "internalType": "string",
          "name": "fecha",
          "type": "string"
        },
        {
          "internalType": "string",
          "name": "codigo_carne",
          "type": "string"
        }
      ],
      "name": "setInfoElaboracion",
      "outputs": [],
      "stateMutability": "nonpayable",
      "type": "function"
    },
    {
      "inputs": [
        {
          "internalType": "string",
          "name": "hash_carne",
          "type": "string"
        }
      ],
      "name": "getCarne",
      "outputs": [
        {
          "components": [
            {
              "internalType": "string",
              "name": "lote",
              "type": "string"
            },
            {
              "components": [
                {
                  "internalType": "string",
                  "name": "lugar_origen",
                  "type": "string"
                },
                {
                  "internalType": "string",
                  "name": "lugar_destino",
                  "type": "string"
                }
              ],
              "internalType": "struct SupplyChain.InfoTransporteCarne",
              "name": "info_transporte",
              "type": "tuple"
            }
          ],
          "internalType": "struct SupplyChain.Carne",
          "name": "",
          "type": "tuple"
        }
      ],
      "stateMutability": "view",
      "type": "function"
    }
  ],
  "bytecode": "0x608060405260405180602001604052806000815250600090805190602001906200002b92919062000040565b503480156200003957600080fd5b5062000154565b8280546200004e906200011f565b90600052602060002090601f016020900481019282620000725760008555620000be565b82601f106200008d57805160ff1916838001178555620000be565b82800160010185558215620000be579182015b82811115620000bd578251825591602001919060010190620000a0565b5b509050620000cd9190620000d1565b5090565b5b80821115620000ec576000816000905550600101620000d2565b5090565b7f4e487b7100000000000000000000000000000000000000000000000000000000600052602260045260246000fd5b600060028204905060018216806200013857607f821691505b6020821081036200014e576200014d620000f0565b5b50919050565b612f3080620001646000396000f3fe608060405234801561001057600080fd5b506004361061007d5760003560e01c80638e8f25401161005b5780638e8f2540146100d8578063a967545f14610108578063c2d1cefe14610126578063e5cada0c146101425761007d565b80633c4bc74e146100825780636eaae69a1461009e5780637f200350146100ba575b600080fd5b61009c6004803603810190610097919061207c565b610172565b005b6100b860048036038101906100b39190612218565b61047e565b005b6100c26107aa565b6040516100cf919061244d565b60405180910390f35b6100f260048036038101906100ed919061246f565b610883565b6040516100ff91906126e7565b60405180910390f35b6101106110a9565b60405161011d91906128ac565b60405180910390f35b610140600480360381019061013b91906128ce565b611985565b005b61015c6004803603810190610157919061246f565b611b87565b6040516101699190612a5d565b60405180910390f35b6002876040516101829190612abb565b9081526020016040518091039020600f0160009054906101000a900460ff166101e0576040517f08c379a00000000000000000000000000000000000000000000000000000000081526004016101d790612b2f565b60405180910390fd5b6002876040516101f09190612abb565b908152602001604051809103902060040160019054906101000a900460ff161561024f576040517f08c379a000000000000000000000000000000000000000000000000000000000815260040161024690612b9b565b60405180910390fd5b60016002886040516102619190612abb565b908152602001604051809103902060040160016101000a81548160ff0219169083151502179055508560028860405161029a9190612abb565b908152602001604051809103902060090160000190805190602001906102c1929190611d89565b50846002886040516102d39190612abb565b908152602001604051809103902060090160010190805190602001906102fa929190611d89565b508360028860405161030c9190612abb565b90815260200160405180910390206009016002019080519060200190610333929190611d89565b50826002886040516103459190612abb565b9081526020016040518091039020600901600301908051906020019061036c929190611d89565b508160028860405161037e9190612abb565b908152602001604051809103902060090160040190805190602001906103a5929190611d89565b50806002886040516103b79190612abb565b908152602001604051809103902060090160050190805190602001906103de929190611d89565b506103e7611e0f565b878160000181905250806003836040516104019190612abb565b9081526020016040518091039020600082015181600001908051906020019061042b929190611d89565b506020820151816001016000820151816000019080519060200190610451929190611d89565b50602082015181600101908051906020019061046e929190611d89565b5050509050505050505050505050565b600060405161048d9190612cba565b60405180910390206002866040516104a59190612abb565b90815260200160405180910390206000016040516104c39190612cba565b60405180910390201461050b576040517f08c379a000000000000000000000000000000000000000000000000000000000815260040161050290612d1d565b60405180910390fd5b610513611e2f565b848160000181905250828160200181905250818160400181905250838160600181815250506001816101000190151590811515815250508060028760405161055b9190612abb565b90815260200160405180910390206000820151816000019080519060200190610585929190611d89565b5060208201518160010190805190602001906105a2929190611d89565b5060408201518160020190805190602001906105bf929190611d89565b506060820151816003015560808201518160040160006101000a81548160ff02191690831515021790555060a08201518160040160016101000a81548160ff02191690831515021790555060c082015181600501600082015181600001908051906020019061062f929190611d89565b50602082015181600101908051906020019061064c929190611d89565b506040820151816002019080519060200190610669929190611d89565b506060820151816003019080519060200190610686929190611d89565b50505060e08201518160090160008201518160000190805190602001906106ae929190611d89565b5060208201518160010190805190602001906106cb929190611d89565b5060408201518160020190805190602001906106e8929190611d89565b506060820151816003019080519060200190610705929190611d89565b506080820151816004019080519060200190610722929190611d89565b5060a082015181600501908051906020019061073f929190611d89565b50505061010082015181600f0160006101000a81548160ff0219169083151502179055509050506001869080600181540180825580915050600190039060005260206000200160009091909190915090805190602001906107a1929190611d89565b50505050505050565b60606001805480602002602001604051908101604052809291908181526020016000905b8282101561087a5783829060005260206000200180546107ed90612bea565b80601f016020809104026020016040519081016040528092919081815260200182805461081990612bea565b80156108665780601f1061083b57610100808354040283529160200191610866565b820191906000526020600020905b81548152906001019060200180831161084957829003601f168201915b5050505050815260200190600101906107ce565b50505050905090565b61088b611e2f565b60028260405161089b9190612abb565b9081526020016040518091039020604051806101200160405290816000820180546108c590612bea565b80601f01602080910402602001604051908101604052809291908181526020018280546108f190612bea565b801561093e5780601f106109135761010080835404028352916020019161093e565b820191906000526020600020905b81548152906001019060200180831161092157829003601f168201915b5050505050815260200160018201805461095790612bea565b80601f016020809104026020016040519081016040528092919081815260200182805461098390612bea565b80156109d05780601f106109a5576101008083540402835291602001916109d0565b820191906000526020600020905b8154815290600101906020018083116109b357829003601f168201915b505050505081526020016002820180546109e990612bea565b80601f0160208091040260200160405190810160405280929190818152602001828054610a1590612bea565b8015610a625780601f10610a3757610100808354040283529160200191610a62565b820191906000526020600020905b815481529060010190602001808311610a4557829003601f168201915b50505050508152602001600382015481526020016004820160009054906101000a900460ff161515151581526020016004820160019054906101000a900460ff1615151515815260200160058201604051806080016040529081600082018054610acb90612bea565b80601f0160208091040260200160405190810160405280929190818152602001828054610af790612bea565b8015610b445780601f10610b1957610100808354040283529160200191610b44565b820191906000526020600020905b815481529060010190602001808311610b2757829003601f168201915b50505050508152602001600182018054610b5d90612bea565b80601f0160208091040260200160405190810160405280929190818152602001828054610b8990612bea565b8015610bd65780601f10610bab57610100808354040283529160200191610bd6565b820191906000526020600020905b815481529060010190602001808311610bb957829003601f168201915b50505050508152602001600282018054610bef90612bea565b80601f0160208091040260200160405190810160405280929190818152602001828054610c1b90612bea565b8015610c685780601f10610c3d57610100808354040283529160200191610c68565b820191906000526020600020905b815481529060010190602001808311610c4b57829003601f168201915b50505050508152602001600382018054610c8190612bea565b80601f0160208091040260200160405190810160405280929190818152602001828054610cad90612bea565b8015610cfa5780601f10610ccf57610100808354040283529160200191610cfa565b820191906000526020600020905b815481529060010190602001808311610cdd57829003601f168201915b5050505050815250508152602001600982016040518060c0016040529081600082018054610d2790612bea565b80601f0160208091040260200160405190810160405280929190818152602001828054610d5390612bea565b8015610da05780601f10610d7557610100808354040283529160200191610da0565b820191906000526020600020905b815481529060010190602001808311610d8357829003601f168201915b50505050508152602001600182018054610db990612bea565b80601f0160208091040260200160405190810160405280929190818152602001828054610de590612bea565b8015610e325780601f10610e0757610100808354040283529160200191610e32565b820191906000526020600020905b815481529060010190602001808311610e1557829003601f168201915b50505050508152602001600282018054610e4b90612bea565b80601f0160208091040260200160405190810160405280929190818152602001828054610e7790612bea565b8015610ec45780601f10610e9957610100808354040283529160200191610ec4565b820191906000526020600020905b815481529060010190602001808311610ea757829003601f168201915b50505050508152602001600382018054610edd90612bea565b80601f0160208091040260200160405190810160405280929190818152602001828054610f0990612bea565b8015610f565780601f10610f2b57610100808354040283529160200191610f56565b820191906000526020600020905b815481529060010190602001808311610f3957829003601f168201915b50505050508152602001600482018054610f6f90612bea565b80601f0160208091040260200160405190810160405280929190818152602001828054610f9b90612bea565b8015610fe85780601f10610fbd57610100808354040283529160200191610fe8565b820191906000526020600020905b815481529060010190602001808311610fcb57829003601f168201915b5050505050815260200160058201805461100190612bea565b80601f016020809104026020016040519081016040528092919081815260200182805461102d90612bea565b801561107a5780601f1061104f5761010080835404028352916020019161107a565b820191906000526020600020905b81548152906001019060200180831161105d57829003601f168201915b5050505050815250508152602001600f820160009054906101000a900460ff1615151515815250509050919050565b6060600060018054905067ffffffffffffffff8111156110cc576110cb611f51565b5b60405190808252806020026020018201604052801561110557816020015b6110f2611e2f565b8152602001906001900390816110ea5790505b50905060005b60018054905081101561197d5760026001828154811061112e5761112d612d3d565b5b906000526020600020016040516111459190612e00565b90815260200160405180910390206040518061012001604052908160008201805461116f90612bea565b80601f016020809104026020016040519081016040528092919081815260200182805461119b90612bea565b80156111e85780601f106111bd576101008083540402835291602001916111e8565b820191906000526020600020905b8154815290600101906020018083116111cb57829003601f168201915b5050505050815260200160018201805461120190612bea565b80601f016020809104026020016040519081016040528092919081815260200182805461122d90612bea565b801561127a5780601f1061124f5761010080835404028352916020019161127a565b820191906000526020600020905b81548152906001019060200180831161125d57829003601f168201915b5050505050815260200160028201805461129390612bea565b80601f01602080910402602001604051908101604052809291908181526020018280546112bf90612bea565b801561130c5780601f106112e15761010080835404028352916020019161130c565b820191906000526020600020905b8154815290600101906020018083116112ef57829003601f168201915b50505050508152602001600382015481526020016004820160009054906101000a900460ff161515151581526020016004820160019054906101000a900460ff161515151581526020016005820160405180608001604052908160008201805461137590612bea565b80601f01602080910402602001604051908101604052809291908181526020018280546113a190612bea565b80156113ee5780601f106113c3576101008083540402835291602001916113ee565b820191906000526020600020905b8154815290600101906020018083116113d157829003601f168201915b5050505050815260200160018201805461140790612bea565b80601f016020809104026020016040519081016040528092919081815260200182805461143390612bea565b80156114805780601f1061145557610100808354040283529160200191611480565b820191906000526020600020905b81548152906001019060200180831161146357829003601f168201915b5050505050815260200160028201805461149990612bea565b80601f01602080910402602001604051908101604052809291908181526020018280546114c590612bea565b80156115125780601f106114e757610100808354040283529160200191611512565b820191906000526020600020905b8154815290600101906020018083116114f557829003601f168201915b5050505050815260200160038201805461152b90612bea565b80601f016020809104026020016040519081016040528092919081815260200182805461155790612bea565b80156115a45780601f10611579576101008083540402835291602001916115a4565b820191906000526020600020905b81548152906001019060200180831161158757829003601f168201915b5050505050815250508152602001600982016040518060c00160405290816000820180546115d190612bea565b80601f01602080910402602001604051908101604052809291908181526020018280546115fd90612bea565b801561164a5780601f1061161f5761010080835404028352916020019161164a565b820191906000526020600020905b81548152906001019060200180831161162d57829003601f168201915b5050505050815260200160018201805461166390612bea565b80601f016020809104026020016040519081016040528092919081815260200182805461168f90612bea565b80156116dc5780601f106116b1576101008083540402835291602001916116dc565b820191906000526020600020905b8154815290600101906020018083116116bf57829003601f168201915b505050505081526020016002820180546116f590612bea565b80601f016020809104026020016040519081016040528092919081815260200182805461172190612bea565b801561176e5780601f106117435761010080835404028352916020019161176e565b820191906000526020600020905b81548152906001019060200180831161175157829003601f168201915b5050505050815260200160038201805461178790612bea565b80601f01602080910402602001604051908101604052809291908181526020018280546117b390612bea565b80156118005780601f106117d557610100808354040283529160200191611800565b820191906000526020600020905b8154815290600101906020018083116117e357829003601f168201915b5050505050815260200160048201805461181990612bea565b80601f016020809104026020016040519081016040528092919081815260200182805461184590612bea565b80156118925780601f1061186757610100808354040283529160200191611892565b820191906000526020600020905b81548152906001019060200180831161187557829003601f168201915b505050505081526020016005820180546118ab90612bea565b80601f01602080910402602001604051908101604052809291908181526020018280546118d790612bea565b80156119245780601f106118f957610100808354040283529160200191611924565b820191906000526020600020905b81548152906001019060200180831161190757829003601f168201915b5050505050815250508152602001600f820160009054906101000a900460ff16151515158152505082828151811061195f5761195e612d3d565b5b6020026020010181905250808061197590612e46565b91505061110b565b508091505090565b6002856040516119959190612abb565b9081526020016040518091039020600f0160009054906101000a900460ff166119f3576040517f08c379a00000000000000000000000000000000000000000000000000000000081526004016119ea90612b2f565b60405180910390fd5b600285604051611a039190612abb565b908152602001604051809103902060040160009054906101000a900460ff1615611a62576040517f08c379a0000000000000000000000000000000000000000000000000000000008152600401611a5990612eda565b60405180910390fd5b6001600286604051611a749190612abb565b908152602001604051809103902060040160006101000a81548160ff02191690831515021790555083600286604051611aad9190612abb565b90815260200160405180910390206005016000019080519060200190611ad4929190611d89565b5082600286604051611ae69190612abb565b90815260200160405180910390206005016001019080519060200190611b0d929190611d89565b5081600286604051611b1f9190612abb565b90815260200160405180910390206005016002019080519060200190611b46929190611d89565b5080600286604051611b589190612abb565b90815260200160405180910390206005016003019080519060200190611b7f929190611d89565b505050505050565b611b8f611e0f565b600382604051611b9f9190612abb565b9081526020016040518091039020604051806040016040529081600082018054611bc890612bea565b80601f0160208091040260200160405190810160405280929190818152602001828054611bf490612bea565b8015611c415780601f10611c1657610100808354040283529160200191611c41565b820191906000526020600020905b815481529060010190602001808311611c2457829003601f168201915b5050505050815260200160018201604051806040016040529081600082018054611c6a90612bea565b80601f0160208091040260200160405190810160405280929190818152602001828054611c9690612bea565b8015611ce35780601f10611cb857610100808354040283529160200191611ce3565b820191906000526020600020905b815481529060010190602001808311611cc657829003601f168201915b50505050508152602001600182018054611cfc90612bea565b80601f0160208091040260200160405190810160405280929190818152602001828054611d2890612bea565b8015611d755780601f10611d4a57610100808354040283529160200191611d75565b820191906000526020600020905b815481529060010190602001808311611d5857829003601f168201915b505050505081525050815250509050919050565b828054611d9590612bea565b90600052602060002090601f016020900481019282611db75760008555611dfe565b82601f10611dd057805160ff1916838001178555611dfe565b82800160010185558215611dfe579182015b82811115611dfd578251825591602001919060010190611de2565b5b509050611e0b9190611e8d565b5090565b604051806040016040528060608152602001611e29611eaa565b81525090565b60405180610120016040528060608152602001606081526020016060815260200160008152602001600015158152602001600015158152602001611e71611ec4565b8152602001611e7e611eec565b81526020016000151581525090565b5b80821115611ea6576000816000905550600101611e8e565b5090565b604051806040016040528060608152602001606081525090565b6040518060800160405280606081526020016060815260200160608152602001606081525090565b6040518060c001604052806060815260200160608152602001606081526020016060815260200160608152602001606081525090565b6000604051905090565b600080fd5b600080fd5b600080fd5b600080fd5b6000601f19601f8301169050919050565b7f4e487b7100000000000000000000000000000000000000000000000000000000600052604160045260246000fd5b611f8982611f40565b810181811067ffffffffffffffff82111715611fa857611fa7611f51565b5b80604052505050565b6000611fbb611f22565b9050611fc78282611f80565b919050565b600067ffffffffffffffff821115611fe757611fe6611f51565b5b611ff082611f40565b9050602081019050919050565b82818337600083830152505050565b600061201f61201a84611fcc565b611fb1565b90508281526020810184848401111561203b5761203a611f3b565b5b612046848285611ffd565b509392505050565b600082601f83011261206357612062611f36565b5b813561207384826020860161200c565b91505092915050565b600080600080600080600060e0888a03121561209b5761209a611f2c565b5b600088013567ffffffffffffffff8111156120b9576120b8611f31565b5b6120c58a828b0161204e565b975050602088013567ffffffffffffffff8111156120e6576120e5611f31565b5b6120f28a828b0161204e565b965050604088013567ffffffffffffffff81111561211357612112611f31565b5b61211f8a828b0161204e565b955050606088013567ffffffffffffffff8111156121405761213f611f31565b5b61214c8a828b0161204e565b945050608088013567ffffffffffffffff81111561216d5761216c611f31565b5b6121798a828b0161204e565b93505060a088013567ffffffffffffffff81111561219a57612199611f31565b5b6121a68a828b0161204e565b92505060c088013567ffffffffffffffff8111156121c7576121c6611f31565b5b6121d38a828b0161204e565b91505092959891949750929550565b6000819050919050565b6121f5816121e2565b811461220057600080fd5b50565b600081359050612212816121ec565b92915050565b600080600080600060a0868803121561223457612233611f2c565b5b600086013567ffffffffffffffff81111561225257612251611f31565b5b61225e8882890161204e565b955050602086013567ffffffffffffffff81111561227f5761227e611f31565b5b61228b8882890161204e565b945050604061229c88828901612203565b935050606086013567ffffffffffffffff8111156122bd576122bc611f31565b5b6122c98882890161204e565b925050608086013567ffffffffffffffff8111156122ea576122e9611f31565b5b6122f68882890161204e565b9150509295509295909350565b600081519050919050565b600082825260208201905092915050565b6000819050602082019050919050565b600081519050919050565b600082825260208201905092915050565b60005b8381101561236957808201518184015260208101905061234e565b83811115612378576000848401525b50505050565b60006123898261232f565b612393818561233a565b93506123a381856020860161234b565b6123ac81611f40565b840191505092915050565b60006123c3838361237e565b905092915050565b6000602082019050919050565b60006123e382612303565b6123ed818561230e565b9350836020820285016123ff8561231f565b8060005b8581101561243b578484038952815161241c85826123b7565b9450612427836123cb565b925060208a01995050600181019050612403565b50829750879550505050505092915050565b6000602082019050818103600083015261246781846123d8565b905092915050565b60006020828403121561248557612484611f2c565b5b600082013567ffffffffffffffff8111156124a3576124a2611f31565b5b6124af8482850161204e565b91505092915050565b6124c1816121e2565b82525050565b60008115159050919050565b6124dc816124c7565b82525050565b600060808301600083015184820360008601526124ff828261237e565b91505060208301518482036020860152612519828261237e565b91505060408301518482036040860152612533828261237e565b9150506060830151848203606086015261254d828261237e565b9150508091505092915050565b600060c0830160008301518482036000860152612577828261237e565b91505060208301518482036020860152612591828261237e565b915050604083015184820360408601526125ab828261237e565b915050606083015184820360608601526125c5828261237e565b915050608083015184820360808601526125df828261237e565b91505060a083015184820360a08601526125f9828261237e565b9150508091505092915050565b6000610120830160008301518482036000860152612624828261237e565b9150506020830151848203602086015261263e828261237e565b91505060408301518482036040860152612658828261237e565b915050606083015161266d60608601826124b8565b50608083015161268060808601826124d3565b5060a083015161269360a08601826124d3565b5060c083015184820360c08601526126ab82826124e2565b91505060e083015184820360e08601526126c5828261255a565b9150506101008301516126dc6101008601826124d3565b508091505092915050565b600060208201905081810360008301526127018184612606565b905092915050565b600081519050919050565b600082825260208201905092915050565b6000819050602082019050919050565b6000610120830160008301518482036000860152612753828261237e565b9150506020830151848203602086015261276d828261237e565b91505060408301518482036040860152612787828261237e565b915050606083015161279c60608601826124b8565b5060808301516127af60808601826124d3565b5060a08301516127c260a08601826124d3565b5060c083015184820360c08601526127da82826124e2565b91505060e083015184820360e08601526127f4828261255a565b91505061010083015161280b6101008601826124d3565b508091505092915050565b60006128228383612735565b905092915050565b6000602082019050919050565b600061284282612709565b61284c8185612714565b93508360208202850161285e85612725565b8060005b8581101561289a578484038952815161287b8582612816565b94506128868361282a565b925060208a01995050600181019050612862565b50829750879550505050505092915050565b600060208201905081810360008301526128c68184612837565b905092915050565b600080600080600060a086880312156128ea576128e9611f2c565b5b600086013567ffffffffffffffff81111561290857612907611f31565b5b6129148882890161204e565b955050602086013567ffffffffffffffff81111561293557612934611f31565b5b6129418882890161204e565b945050604086013567ffffffffffffffff81111561296257612961611f31565b5b61296e8882890161204e565b935050606086013567ffffffffffffffff81111561298f5761298e611f31565b5b61299b8882890161204e565b925050608086013567ffffffffffffffff8111156129bc576129bb611f31565b5b6129c88882890161204e565b9150509295509295909350565b600060408301600083015184820360008601526129f2828261237e565b91505060208301518482036020860152612a0c828261237e565b9150508091505092915050565b60006040830160008301518482036000860152612a36828261237e565b91505060208301518482036020860152612a5082826129d5565b9150508091505092915050565b60006020820190508181036000830152612a778184612a19565b905092915050565b600081905092915050565b6000612a958261232f565b612a9f8185612a7f565b9350612aaf81856020860161234b565b80840191505092915050565b6000612ac78284612a8a565b915081905092915050565b600082825260208201905092915050565b7f4c6f7465206e6f206578697374656e74652e0000000000000000000000000000600082015250565b6000612b19601283612ad2565b9150612b2482612ae3565b602082019050919050565b60006020820190508181036000830152612b4881612b0c565b9050919050565b7f4c6f746520796120656c61626f7261646f2e0000000000000000000000000000600082015250565b6000612b85601283612ad2565b9150612b9082612b4f565b602082019050919050565b60006020820190508181036000830152612bb481612b78565b9050919050565b7f4e487b7100000000000000000000000000000000000000000000000000000000600052602260045260246000fd5b60006002820490506001821680612c0257607f821691505b602082108103612c1557612c14612bbb565b5b50919050565b600081905092915050565b60008190508160005260206000209050919050565b60008154612c4881612bea565b612c528186612c1b565b94506001821660008114612c6d5760018114612c7e57612cb1565b60ff19831686528186019350612cb1565b612c8785612c26565b60005b83811015612ca957815481890152600182019150602081019050612c8a565b838801955050505b50505092915050565b6000612cc68284612c3b565b915081905092915050565b7f4c6f7465207961207265676973747261646f2e00000000000000000000000000600082015250565b6000612d07601383612ad2565b9150612d1282612cd1565b602082019050919050565b60006020820190508181036000830152612d3681612cfa565b9050919050565b7f4e487b7100000000000000000000000000000000000000000000000000000000600052603260045260246000fd5b60008190508160005260206000209050919050565b60008154612d8e81612bea565b612d988186612a7f565b94506001821660008114612db35760018114612dc457612df7565b60ff19831686528186019350612df7565b612dcd85612d6c565b60005b83811015612def57815481890152600182019150602081019050612dd0565b838801955050505b50505092915050565b6000612e0c8284612d81565b915081905092915050565b7f4e487b7100000000000000000000000000000000000000000000000000000000600052601160045260246000fd5b6000612e51826121e2565b91507fffffffffffffffffffffffffffffffffffffffffffffffffffffffffffffffff8203612e8357612e82612e17565b5b600182019050919050565b7f4c6f7465207961207472616e73706f727461646f2e0000000000000000000000600082015250565b6000612ec4601583612ad2565b9150612ecf82612e8e565b602082019050919050565b60006020820190508181036000830152612ef381612eb7565b905091905056fea264697066735822122069fd77e2cf38a3f0bba6d91721ad19aadb9524e22568abbe4a44535bd83839eb64736f6c634300080d0033",
  "immutableReferences": {},
  "source": "// SPDX-License-Identifier: GPL-3.0\r\npragma solidity >=0.4.16 <0.9.0;\r\n\r\ncontract SupplyChain {\r\n    struct Lote {\r\n        string id_lote;\r\n        string lugar_crianza;\r\n        string alimento;\r\n        uint ganado;\r\n        bool transportado; // true si el lote ya fue transportado\r\n        bool elaborado; // true si el lote ya fue sacrificado\r\n        InfoTransporteGanado info_transporte;\r\n        InfoElaboracionCarne info_elaboracion;\r\n        bool init;\r\n    }\r\n    struct InfoTransporteGanado {\r\n        string lugar_origen;\r\n        string lugar_destino;\r\n        string fecha_transporte;\r\n        string tiempo_transporte;\r\n    }\r\n\r\n    struct InfoElaboracionCarne {\r\n        string nombre_matadero;\r\n        string temperatura;\r\n        string humedad;\r\n        string tiempo_elaboracion;\r\n        string fecha_sacrificio;\r\n        string hash_carne;\r\n    }\r\n\r\n    struct Carne {\r\n        string lote;\r\n        InfoTransporteCarne info_transporte;\r\n    }\r\n\r\n    struct InfoTransporteCarne {\r\n        string lugar_origen;\r\n        string lugar_destino;\r\n    }\r\n\r\n    string vacio = \"\";\r\n    string[] lotes;\r\n    mapping(string => Lote) index_lotes;\r\n    mapping(string => Carne) index_carnes;\r\n\r\n    function setLote(string memory hash_lote, \r\n                string memory _id, \r\n                uint _ganado,\r\n                string memory _lugar_crianza, \r\n                string memory _alimento) public {\r\n        require(keccak256(bytes(index_lotes[hash_lote].id_lote)) == keccak256(bytes(vacio)), \"Lote ya registrado.\");\r\n        Lote memory lote;\r\n        lote.id_lote       = _id;\r\n        lote.lugar_crianza = _lugar_crianza;\r\n        lote.alimento      = _alimento;\r\n        lote.ganado        = _ganado;\r\n        lote.init          = true;\r\n        index_lotes[hash_lote] = lote;\r\n        lotes.push(hash_lote);\r\n    }\r\n\r\n    function getLote(string memory hash_lote) public view returns (Lote memory) {\r\n        return index_lotes[hash_lote];\r\n    }\r\n\r\n    function getLotes() public view returns (Lote[] memory) {\r\n        Lote[] memory array_lotes = new Lote[](lotes.length);\r\n        for (uint256 i = 0; i < lotes.length; i++) {\r\n            array_lotes[i] = index_lotes[lotes[i]];\r\n        }\r\n        return array_lotes;\r\n    }\r\n\r\n    function getHashLotes() public view returns (string[] memory) {\r\n        return lotes;\r\n    }\r\n\r\n    function setInfoTransporte(string memory hash_lote,\r\n                                string memory origen,\r\n                                string memory destino,\r\n                                string memory fecha,\r\n                                string memory tiempo) public {\r\n        require(index_lotes[hash_lote].init, \"Lote no existente.\");\r\n        require(!index_lotes[hash_lote].transportado, \"Lote ya transportado.\");\r\n        index_lotes[hash_lote].transportado                      = true;\r\n        index_lotes[hash_lote].info_transporte.lugar_origen      = origen;\r\n        index_lotes[hash_lote].info_transporte.lugar_destino     = destino;\r\n        index_lotes[hash_lote].info_transporte.fecha_transporte  = fecha;\r\n        index_lotes[hash_lote].info_transporte.tiempo_transporte = tiempo;\r\n    }\r\n\r\n    function setInfoElaboracion(string memory hash_lote,\r\n                                string memory matadero,\r\n                                string memory _temperatura,\r\n                                string memory _humedad,\r\n                                string memory tiempo,\r\n                                string memory fecha,\r\n                                string memory codigo_carne) public {\r\n        require(index_lotes[hash_lote].init, \"Lote no existente.\");\r\n        require(!index_lotes[hash_lote].elaborado, \"Lote ya elaborado.\");\r\n        index_lotes[hash_lote].elaborado                           = true;\r\n        index_lotes[hash_lote].info_elaboracion.nombre_matadero    = matadero;\r\n        index_lotes[hash_lote].info_elaboracion.temperatura        = _temperatura;\r\n        index_lotes[hash_lote].info_elaboracion.humedad            = _humedad;\r\n        index_lotes[hash_lote].info_elaboracion.tiempo_elaboracion = tiempo;\r\n        index_lotes[hash_lote].info_elaboracion.fecha_sacrificio   = fecha;\r\n        index_lotes[hash_lote].info_elaboracion.hash_carne         = codigo_carne;\r\n        Carne memory carne;\r\n        carne.lote = hash_lote;\r\n        index_carnes[codigo_carne] = carne;\r\n    }\r\n\r\n    function getCarne(string memory hash_carne) public view returns (Carne memory) {\r\n        return index_carnes[hash_carne];\r\n    }\r\n}",
  "sourcePath": "D:\\Proyectos\\react\\supply-chain-front\\contracts\\SupplyChain.sol",
  "compiler": {
    "name": "solc",
    "version": "0.8.13+commit.abaa5c0e.Emscripten.clang"
  },
  "schemaVersion": "3.4.7",
  "updatedAt": "2022-05-19T21:09:30.177Z",
  "devdoc": {
    "kind": "dev",
    "methods": {},
    "version": 1
  },
  "userdoc": {
    "kind": "user",
    "methods": {},
    "version": 1
  }
}