{
  "contractName": "SupplyChain",
  "abi": [
    {
      "inputs": [
        {
          "internalType": "string",
          "name": "hash_lote",
          "type": "string"
        },
        {
          "internalType": "string",
          "name": "_id",
          "type": "string"
        },
        {
          "internalType": "uint256",
          "name": "_ganado",
          "type": "uint256"
        },
        {
          "internalType": "string",
          "name": "_lugar_crianza",
          "type": "string"
        },
        {
          "internalType": "string",
          "name": "_alimento",
          "type": "string"
        }
      ],
      "name": "setLote",
      "outputs": [],
      "stateMutability": "nonpayable",
      "type": "function"
    },
    {
      "inputs": [
        {
          "internalType": "string",
          "name": "hash_lote",
          "type": "string"
        }
      ],
      "name": "getLote",
      "outputs": [
        {
          "components": [
            {
              "internalType": "string",
              "name": "id_lote",
              "type": "string"
            },
            {
              "internalType": "string",
              "name": "lugar_crianza",
              "type": "string"
            },
            {
              "internalType": "string",
              "name": "alimento",
              "type": "string"
            },
            {
              "internalType": "uint256",
              "name": "ganado",
              "type": "uint256"
            },
            {
              "internalType": "bool",
              "name": "transportado",
              "type": "bool"
            },
            {
              "internalType": "bool",
              "name": "elaborado",
              "type": "bool"
            },
            {
              "components": [
                {
                  "internalType": "string",
                  "name": "lugar_origen",
                  "type": "string"
                },
                {
                  "internalType": "string",
                  "name": "lugar_destino",
                  "type": "string"
                },
                {
                  "internalType": "string",
                  "name": "fecha_transporte",
                  "type": "string"
                },
                {
                  "internalType": "string",
                  "name": "tiempo_transporte",
                  "type": "string"
                }
              ],
              "internalType": "struct SupplyChain.InfoTransporteGanado",
              "name": "info_transporte",
              "type": "tuple"
            },
            {
              "components": [
                {
                  "internalType": "string",
                  "name": "nombre_matadero",
                  "type": "string"
                },
                {
                  "internalType": "string",
                  "name": "temperatura",
                  "type": "string"
                },
                {
                  "internalType": "string",
                  "name": "humedad",
                  "type": "string"
                },
                {
                  "internalType": "string",
                  "name": "tiempo_elaboracion",
                  "type": "string"
                },
                {
                  "internalType": "string",
                  "name": "fecha_sacrificio",
                  "type": "string"
                }
              ],
              "internalType": "struct SupplyChain.InfoElaboracionCarne",
              "name": "info_elaboracion",
              "type": "tuple"
            }
          ],
          "internalType": "struct SupplyChain.Lote",
          "name": "",
          "type": "tuple"
        }
      ],
      "stateMutability": "view",
      "type": "function",
      "constant": true
    },
    {
      "inputs": [],
      "name": "getLotes",
      "outputs": [
        {
          "components": [
            {
              "internalType": "string",
              "name": "id_lote",
              "type": "string"
            },
            {
              "internalType": "string",
              "name": "lugar_crianza",
              "type": "string"
            },
            {
              "internalType": "string",
              "name": "alimento",
              "type": "string"
            },
            {
              "internalType": "uint256",
              "name": "ganado",
              "type": "uint256"
            },
            {
              "internalType": "bool",
              "name": "transportado",
              "type": "bool"
            },
            {
              "internalType": "bool",
              "name": "elaborado",
              "type": "bool"
            },
            {
              "components": [
                {
                  "internalType": "string",
                  "name": "lugar_origen",
                  "type": "string"
                },
                {
                  "internalType": "string",
                  "name": "lugar_destino",
                  "type": "string"
                },
                {
                  "internalType": "string",
                  "name": "fecha_transporte",
                  "type": "string"
                },
                {
                  "internalType": "string",
                  "name": "tiempo_transporte",
                  "type": "string"
                }
              ],
              "internalType": "struct SupplyChain.InfoTransporteGanado",
              "name": "info_transporte",
              "type": "tuple"
            },
            {
              "components": [
                {
                  "internalType": "string",
                  "name": "nombre_matadero",
                  "type": "string"
                },
                {
                  "internalType": "string",
                  "name": "temperatura",
                  "type": "string"
                },
                {
                  "internalType": "string",
                  "name": "humedad",
                  "type": "string"
                },
                {
                  "internalType": "string",
                  "name": "tiempo_elaboracion",
                  "type": "string"
                },
                {
                  "internalType": "string",
                  "name": "fecha_sacrificio",
                  "type": "string"
                }
              ],
              "internalType": "struct SupplyChain.InfoElaboracionCarne",
              "name": "info_elaboracion",
              "type": "tuple"
            }
          ],
          "internalType": "struct SupplyChain.Lote[]",
          "name": "",
          "type": "tuple[]"
        }
      ],
      "stateMutability": "view",
      "type": "function",
      "constant": true
    },
    {
      "inputs": [
        {
          "internalType": "string",
          "name": "hash_lote",
          "type": "string"
        },
        {
          "internalType": "string",
          "name": "origen",
          "type": "string"
        },
        {
          "internalType": "string",
          "name": "destino",
          "type": "string"
        },
        {
          "internalType": "string",
          "name": "fecha",
          "type": "string"
        },
        {
          "internalType": "string",
          "name": "tiempo",
          "type": "string"
        }
      ],
      "name": "setInfoTransporte",
      "outputs": [],
      "stateMutability": "nonpayable",
      "type": "function"
    },
    {
      "inputs": [
        {
          "internalType": "string",
          "name": "hash_lote",
          "type": "string"
        },
        {
          "internalType": "string",
          "name": "matadero",
          "type": "string"
        },
        {
          "internalType": "string",
          "name": "_temperatura",
          "type": "string"
        },
        {
          "internalType": "string",
          "name": "_humedad",
          "type": "string"
        },
        {
          "internalType": "string",
          "name": "tiempo",
          "type": "string"
        },
        {
          "internalType": "string",
          "name": "fecha",
          "type": "string"
        },
        {
          "internalType": "string",
          "name": "codigo_carne",
          "type": "string"
        }
      ],
      "name": "setInfoElaboracion",
      "outputs": [],
      "stateMutability": "nonpayable",
      "type": "function"
    },
    {
      "inputs": [
        {
          "internalType": "string",
          "name": "hash_carne",
          "type": "string"
        }
      ],
      "name": "getCarne",
      "outputs": [
        {
          "components": [
            {
              "internalType": "string",
              "name": "lote",
              "type": "string"
            },
            {
              "components": [
                {
                  "internalType": "string",
                  "name": "lugar_origen",
                  "type": "string"
                },
                {
                  "internalType": "string",
                  "name": "lugar_destino",
                  "type": "string"
                }
              ],
              "internalType": "struct SupplyChain.InfoTransporteCarne",
              "name": "info_transporte",
              "type": "tuple"
            }
          ],
          "internalType": "struct SupplyChain.Carne",
          "name": "",
          "type": "tuple"
        }
      ],
      "stateMutability": "view",
      "type": "function",
      "constant": true
    }
  ],
  "bytecode": "0x608060405260405180602001604052806000815250600090805190602001906200002b92919062000040565b503480156200003957600080fd5b5062000154565b8280546200004e906200011f565b90600052602060002090601f016020900481019282620000725760008555620000be565b82601f106200008d57805160ff1916838001178555620000be565b82800160010185558215620000be579182015b82811115620000bd578251825591602001919060010190620000a0565b5b509050620000cd9190620000d1565b5090565b5b80821115620000ec576000816000905550600101620000d2565b5090565b7f4e487b7100000000000000000000000000000000000000000000000000000000600052602260045260246000fd5b600060028204905060018216806200013857607f821691505b6020821081036200014e576200014d620000f0565b5b50919050565b612b9f80620001646000396000f3fe608060405234801561001057600080fd5b50600436106100625760003560e01c80633c4bc74e146100675780636eaae69a146100835780638e8f25401461009f578063a967545f146100cf578063c2d1cefe146100ed578063e5cada0c14610109575b600080fd5b610081600480360381019061007c9190611f64565b610139565b005b61009d60048036038101906100989190612100565b6104bb565b005b6100b960048036038101906100b491906121eb565b610945565b6040516100c691906124bc565b60405180910390f35b6100d76110be565b6040516100e4919061266c565b60405180910390f35b6101076004803603810190610102919061268e565b61185e565b005b610123600480360381019061011e91906121eb565b611a7f565b604051610130919061281d565b60405180910390f35b6000604051610148919061293e565b60405180910390206002886040516101609190612991565b908152602001604051809103902060000160405161017e919061293e565b6040518091039020036101c6576040517f08c379a00000000000000000000000000000000000000000000000000000000081526004016101bd90612a05565b60405180910390fd5b6002876040516101d69190612991565b908152602001604051809103902060040160019054906101000a900460ff1615610235576040517f08c379a000000000000000000000000000000000000000000000000000000000815260040161022c90612a71565b60405180910390fd5b60016002886040516102479190612991565b908152602001604051809103902060040160016101000a81548160ff021916908315150217905550856002886040516102809190612991565b908152602001604051809103902060090160000190805190602001906102a7929190611c81565b50846002886040516102b99190612991565b908152602001604051809103902060090160010190805190602001906102e0929190611c81565b50836002886040516102f29190612991565b90815260200160405180910390206009016002019080519060200190610319929190611c81565b508260028860405161032b9190612991565b90815260200160405180910390206009016003019080519060200190610352929190611c81565b50816002886040516103649190612991565b9081526020016040518091039020600901600401908051906020019061038b929190611c81565b50610394611d07565b878160000181905250806004836040516103ae9190612991565b908152602001604051809103902060008201518160000190805190602001906103d8929190611c81565b5060208201518160010160008201518160000190805190602001906103fe929190611c81565b50602082015181600101908051906020019061041b929190611c81565b50505090505060038190806001815401808255809150506001900390600052602060002090600302016000909190919091506000820151816000019080519060200190610469929190611c81565b50602082015181600101600082015181600001908051906020019061048f929190611c81565b5060208201518160010190805190602001906104ac929190611c81565b50505050505050505050505050565b60006040516104ca919061293e565b60405180910390206002866040516104e29190612991565b9081526020016040518091039020600001604051610500919061293e565b604051809103902014610548576040517f08c379a000000000000000000000000000000000000000000000000000000000815260040161053f90612add565b60405180910390fd5b610550611d27565b84816000018190525082816020018190525081816040018190525083816060018181525050806002876040516105869190612991565b908152602001604051809103902060008201518160000190805190602001906105b0929190611c81565b5060208201518160010190805190602001906105cd929190611c81565b5060408201518160020190805190602001906105ea929190611c81565b506060820151816003015560808201518160040160006101000a81548160ff02191690831515021790555060a08201518160040160016101000a81548160ff02191690831515021790555060c082015181600501600082015181600001908051906020019061065a929190611c81565b506020820151816001019080519060200190610677929190611c81565b506040820151816002019080519060200190610694929190611c81565b5060608201518160030190805190602001906106b1929190611c81565b50505060e08201518160090160008201518160000190805190602001906106d9929190611c81565b5060208201518160010190805190602001906106f6929190611c81565b506040820151816002019080519060200190610713929190611c81565b506060820151816003019080519060200190610730929190611c81565b50608082015181600401908051906020019061074d929190611c81565b50505090505060018190806001815401808255809150506001900390600052602060002090600e0201600090919091909150600082015181600001908051906020019061079b929190611c81565b5060208201518160010190805190602001906107b8929190611c81565b5060408201518160020190805190602001906107d5929190611c81565b506060820151816003015560808201518160040160006101000a81548160ff02191690831515021790555060a08201518160040160016101000a81548160ff02191690831515021790555060c0820151816005016000820151816000019080519060200190610845929190611c81565b506020820151816001019080519060200190610862929190611c81565b50604082015181600201908051906020019061087f929190611c81565b50606082015181600301908051906020019061089c929190611c81565b50505060e08201518160090160008201518160000190805190602001906108c4929190611c81565b5060208201518160010190805190602001906108e1929190611c81565b5060408201518160020190805190602001906108fe929190611c81565b50606082015181600301908051906020019061091b929190611c81565b506080820151816004019080519060200190610938929190611c81565b5050505050505050505050565b61094d611d27565b60028260405161095d9190612991565b9081526020016040518091039020604051806101000160405290816000820180546109879061286e565b80601f01602080910402602001604051908101604052809291908181526020018280546109b39061286e565b8015610a005780601f106109d557610100808354040283529160200191610a00565b820191906000526020600020905b8154815290600101906020018083116109e357829003601f168201915b50505050508152602001600182018054610a199061286e565b80601f0160208091040260200160405190810160405280929190818152602001828054610a459061286e565b8015610a925780601f10610a6757610100808354040283529160200191610a92565b820191906000526020600020905b815481529060010190602001808311610a7557829003601f168201915b50505050508152602001600282018054610aab9061286e565b80601f0160208091040260200160405190810160405280929190818152602001828054610ad79061286e565b8015610b245780601f10610af957610100808354040283529160200191610b24565b820191906000526020600020905b815481529060010190602001808311610b0757829003601f168201915b50505050508152602001600382015481526020016004820160009054906101000a900460ff161515151581526020016004820160019054906101000a900460ff1615151515815260200160058201604051806080016040529081600082018054610b8d9061286e565b80601f0160208091040260200160405190810160405280929190818152602001828054610bb99061286e565b8015610c065780601f10610bdb57610100808354040283529160200191610c06565b820191906000526020600020905b815481529060010190602001808311610be957829003601f168201915b50505050508152602001600182018054610c1f9061286e565b80601f0160208091040260200160405190810160405280929190818152602001828054610c4b9061286e565b8015610c985780601f10610c6d57610100808354040283529160200191610c98565b820191906000526020600020905b815481529060010190602001808311610c7b57829003601f168201915b50505050508152602001600282018054610cb19061286e565b80601f0160208091040260200160405190810160405280929190818152602001828054610cdd9061286e565b8015610d2a5780601f10610cff57610100808354040283529160200191610d2a565b820191906000526020600020905b815481529060010190602001808311610d0d57829003601f168201915b50505050508152602001600382018054610d439061286e565b80601f0160208091040260200160405190810160405280929190818152602001828054610d6f9061286e565b8015610dbc5780601f10610d9157610100808354040283529160200191610dbc565b820191906000526020600020905b815481529060010190602001808311610d9f57829003601f168201915b5050505050815250508152602001600982016040518060a0016040529081600082018054610de99061286e565b80601f0160208091040260200160405190810160405280929190818152602001828054610e159061286e565b8015610e625780601f10610e3757610100808354040283529160200191610e62565b820191906000526020600020905b815481529060010190602001808311610e4557829003601f168201915b50505050508152602001600182018054610e7b9061286e565b80601f0160208091040260200160405190810160405280929190818152602001828054610ea79061286e565b8015610ef45780601f10610ec957610100808354040283529160200191610ef4565b820191906000526020600020905b815481529060010190602001808311610ed757829003601f168201915b50505050508152602001600282018054610f0d9061286e565b80601f0160208091040260200160405190810160405280929190818152602001828054610f399061286e565b8015610f865780601f10610f5b57610100808354040283529160200191610f86565b820191906000526020600020905b815481529060010190602001808311610f6957829003601f168201915b50505050508152602001600382018054610f9f9061286e565b80601f0160208091040260200160405190810160405280929190818152602001828054610fcb9061286e565b80156110185780601f10610fed57610100808354040283529160200191611018565b820191906000526020600020905b815481529060010190602001808311610ffb57829003601f168201915b505050505081526020016004820180546110319061286e565b80601f016020809104026020016040519081016040528092919081815260200182805461105d9061286e565b80156110aa5780601f1061107f576101008083540402835291602001916110aa565b820191906000526020600020905b81548152906001019060200180831161108d57829003601f168201915b505050505081525050815250509050919050565b60606001805480602002602001604051908101604052809291908181526020016000905b8282101561185557838290600052602060002090600e0201604051806101000160405290816000820180546111169061286e565b80601f01602080910402602001604051908101604052809291908181526020018280546111429061286e565b801561118f5780601f106111645761010080835404028352916020019161118f565b820191906000526020600020905b81548152906001019060200180831161117257829003601f168201915b505050505081526020016001820180546111a89061286e565b80601f01602080910402602001604051908101604052809291908181526020018280546111d49061286e565b80156112215780601f106111f657610100808354040283529160200191611221565b820191906000526020600020905b81548152906001019060200180831161120457829003601f168201915b5050505050815260200160028201805461123a9061286e565b80601f01602080910402602001604051908101604052809291908181526020018280546112669061286e565b80156112b35780601f10611288576101008083540402835291602001916112b3565b820191906000526020600020905b81548152906001019060200180831161129657829003601f168201915b50505050508152602001600382015481526020016004820160009054906101000a900460ff161515151581526020016004820160019054906101000a900460ff161515151581526020016005820160405180608001604052908160008201805461131c9061286e565b80601f01602080910402602001604051908101604052809291908181526020018280546113489061286e565b80156113955780601f1061136a57610100808354040283529160200191611395565b820191906000526020600020905b81548152906001019060200180831161137857829003601f168201915b505050505081526020016001820180546113ae9061286e565b80601f01602080910402602001604051908101604052809291908181526020018280546113da9061286e565b80156114275780601f106113fc57610100808354040283529160200191611427565b820191906000526020600020905b81548152906001019060200180831161140a57829003601f168201915b505050505081526020016002820180546114409061286e565b80601f016020809104026020016040519081016040528092919081815260200182805461146c9061286e565b80156114b95780601f1061148e576101008083540402835291602001916114b9565b820191906000526020600020905b81548152906001019060200180831161149c57829003601f168201915b505050505081526020016003820180546114d29061286e565b80601f01602080910402602001604051908101604052809291908181526020018280546114fe9061286e565b801561154b5780601f106115205761010080835404028352916020019161154b565b820191906000526020600020905b81548152906001019060200180831161152e57829003601f168201915b5050505050815250508152602001600982016040518060a00160405290816000820180546115789061286e565b80601f01602080910402602001604051908101604052809291908181526020018280546115a49061286e565b80156115f15780601f106115c6576101008083540402835291602001916115f1565b820191906000526020600020905b8154815290600101906020018083116115d457829003601f168201915b5050505050815260200160018201805461160a9061286e565b80601f01602080910402602001604051908101604052809291908181526020018280546116369061286e565b80156116835780601f1061165857610100808354040283529160200191611683565b820191906000526020600020905b81548152906001019060200180831161166657829003601f168201915b5050505050815260200160028201805461169c9061286e565b80601f01602080910402602001604051908101604052809291908181526020018280546116c89061286e565b80156117155780601f106116ea57610100808354040283529160200191611715565b820191906000526020600020905b8154815290600101906020018083116116f857829003601f168201915b5050505050815260200160038201805461172e9061286e565b80601f016020809104026020016040519081016040528092919081815260200182805461175a9061286e565b80156117a75780601f1061177c576101008083540402835291602001916117a7565b820191906000526020600020905b81548152906001019060200180831161178a57829003601f168201915b505050505081526020016004820180546117c09061286e565b80601f01602080910402602001604051908101604052809291908181526020018280546117ec9061286e565b80156118395780601f1061180e57610100808354040283529160200191611839565b820191906000526020600020905b81548152906001019060200180831161181c57829003601f168201915b50505050508152505081525050815260200190600101906110e2565b50505050905090565b600060405161186d919061293e565b60405180910390206002866040516118859190612991565b90815260200160405180910390206000016040516118a3919061293e565b6040518091039020036118eb576040517f08c379a00000000000000000000000000000000000000000000000000000000081526004016118e290612a05565b60405180910390fd5b6002856040516118fb9190612991565b908152602001604051809103902060040160009054906101000a900460ff161561195a576040517f08c379a000000000000000000000000000000000000000000000000000000000815260040161195190612b49565b60405180910390fd5b600160028660405161196c9190612991565b908152602001604051809103902060040160006101000a81548160ff021916908315150217905550836002866040516119a59190612991565b908152602001604051809103902060050160000190805190602001906119cc929190611c81565b50826002866040516119de9190612991565b90815260200160405180910390206005016001019080519060200190611a05929190611c81565b5081600286604051611a179190612991565b90815260200160405180910390206005016002019080519060200190611a3e929190611c81565b5080600286604051611a509190612991565b90815260200160405180910390206005016003019080519060200190611a77929190611c81565b505050505050565b611a87611d07565b600482604051611a979190612991565b9081526020016040518091039020604051806040016040529081600082018054611ac09061286e565b80601f0160208091040260200160405190810160405280929190818152602001828054611aec9061286e565b8015611b395780601f10611b0e57610100808354040283529160200191611b39565b820191906000526020600020905b815481529060010190602001808311611b1c57829003601f168201915b5050505050815260200160018201604051806040016040529081600082018054611b629061286e565b80601f0160208091040260200160405190810160405280929190818152602001828054611b8e9061286e565b8015611bdb5780601f10611bb057610100808354040283529160200191611bdb565b820191906000526020600020905b815481529060010190602001808311611bbe57829003601f168201915b50505050508152602001600182018054611bf49061286e565b80601f0160208091040260200160405190810160405280929190818152602001828054611c209061286e565b8015611c6d5780601f10611c4257610100808354040283529160200191611c6d565b820191906000526020600020905b815481529060010190602001808311611c5057829003601f168201915b505050505081525050815250509050919050565b828054611c8d9061286e565b90600052602060002090601f016020900481019282611caf5760008555611cf6565b82601f10611cc857805160ff1916838001178555611cf6565b82800160010185558215611cf6579182015b82811115611cf5578251825591602001919060010190611cda565b5b509050611d039190611d7c565b5090565b604051806040016040528060608152602001611d21611d99565b81525090565b60405180610100016040528060608152602001606081526020016060815260200160008152602001600015158152602001600015158152602001611d69611db3565b8152602001611d76611ddb565b81525090565b5b80821115611d95576000816000905550600101611d7d565b5090565b604051806040016040528060608152602001606081525090565b6040518060800160405280606081526020016060815260200160608152602001606081525090565b6040518060a0016040528060608152602001606081526020016060815260200160608152602001606081525090565b6000604051905090565b600080fd5b600080fd5b600080fd5b600080fd5b6000601f19601f8301169050919050565b7f4e487b7100000000000000000000000000000000000000000000000000000000600052604160045260246000fd5b611e7182611e28565b810181811067ffffffffffffffff82111715611e9057611e8f611e39565b5b80604052505050565b6000611ea3611e0a565b9050611eaf8282611e68565b919050565b600067ffffffffffffffff821115611ecf57611ece611e39565b5b611ed882611e28565b9050602081019050919050565b82818337600083830152505050565b6000611f07611f0284611eb4565b611e99565b905082815260208101848484011115611f2357611f22611e23565b5b611f2e848285611ee5565b509392505050565b600082601f830112611f4b57611f4a611e1e565b5b8135611f5b848260208601611ef4565b91505092915050565b600080600080600080600060e0888a031215611f8357611f82611e14565b5b600088013567ffffffffffffffff811115611fa157611fa0611e19565b5b611fad8a828b01611f36565b975050602088013567ffffffffffffffff811115611fce57611fcd611e19565b5b611fda8a828b01611f36565b965050604088013567ffffffffffffffff811115611ffb57611ffa611e19565b5b6120078a828b01611f36565b955050606088013567ffffffffffffffff81111561202857612027611e19565b5b6120348a828b01611f36565b945050608088013567ffffffffffffffff81111561205557612054611e19565b5b6120618a828b01611f36565b93505060a088013567ffffffffffffffff81111561208257612081611e19565b5b61208e8a828b01611f36565b92505060c088013567ffffffffffffffff8111156120af576120ae611e19565b5b6120bb8a828b01611f36565b91505092959891949750929550565b6000819050919050565b6120dd816120ca565b81146120e857600080fd5b50565b6000813590506120fa816120d4565b92915050565b600080600080600060a0868803121561211c5761211b611e14565b5b600086013567ffffffffffffffff81111561213a57612139611e19565b5b61214688828901611f36565b955050602086013567ffffffffffffffff81111561216757612166611e19565b5b61217388828901611f36565b9450506040612184888289016120eb565b935050606086013567ffffffffffffffff8111156121a5576121a4611e19565b5b6121b188828901611f36565b925050608086013567ffffffffffffffff8111156121d2576121d1611e19565b5b6121de88828901611f36565b9150509295509295909350565b60006020828403121561220157612200611e14565b5b600082013567ffffffffffffffff81111561221f5761221e611e19565b5b61222b84828501611f36565b91505092915050565b600081519050919050565b600082825260208201905092915050565b60005b8381101561226e578082015181840152602081019050612253565b8381111561227d576000848401525b50505050565b600061228e82612234565b612298818561223f565b93506122a8818560208601612250565b6122b181611e28565b840191505092915050565b6122c5816120ca565b82525050565b60008115159050919050565b6122e0816122cb565b82525050565b600060808301600083015184820360008601526123038282612283565b9150506020830151848203602086015261231d8282612283565b915050604083015184820360408601526123378282612283565b915050606083015184820360608601526123518282612283565b9150508091505092915050565b600060a083016000830151848203600086015261237b8282612283565b915050602083015184820360208601526123958282612283565b915050604083015184820360408601526123af8282612283565b915050606083015184820360608601526123c98282612283565b915050608083015184820360808601526123e38282612283565b9150508091505092915050565b600061010083016000830151848203600086015261240e8282612283565b915050602083015184820360208601526124288282612283565b915050604083015184820360408601526124428282612283565b915050606083015161245760608601826122bc565b50608083015161246a60808601826122d7565b5060a083015161247d60a08601826122d7565b5060c083015184820360c086015261249582826122e6565b91505060e083015184820360e08601526124af828261235e565b9150508091505092915050565b600060208201905081810360008301526124d681846123f0565b905092915050565b600081519050919050565b600082825260208201905092915050565b6000819050602082019050919050565b60006101008301600083015184820360008601526125288282612283565b915050602083015184820360208601526125428282612283565b9150506040830151848203604086015261255c8282612283565b915050606083015161257160608601826122bc565b50608083015161258460808601826122d7565b5060a083015161259760a08601826122d7565b5060c083015184820360c08601526125af82826122e6565b91505060e083015184820360e08601526125c9828261235e565b9150508091505092915050565b60006125e2838361250a565b905092915050565b6000602082019050919050565b6000612602826124de565b61260c81856124e9565b93508360208202850161261e856124fa565b8060005b8581101561265a578484038952815161263b85826125d6565b9450612646836125ea565b925060208a01995050600181019050612622565b50829750879550505050505092915050565b6000602082019050818103600083015261268681846125f7565b905092915050565b600080600080600060a086880312156126aa576126a9611e14565b5b600086013567ffffffffffffffff8111156126c8576126c7611e19565b5b6126d488828901611f36565b955050602086013567ffffffffffffffff8111156126f5576126f4611e19565b5b61270188828901611f36565b945050604086013567ffffffffffffffff81111561272257612721611e19565b5b61272e88828901611f36565b935050606086013567ffffffffffffffff81111561274f5761274e611e19565b5b61275b88828901611f36565b925050608086013567ffffffffffffffff81111561277c5761277b611e19565b5b61278888828901611f36565b9150509295509295909350565b600060408301600083015184820360008601526127b28282612283565b915050602083015184820360208601526127cc8282612283565b9150508091505092915050565b600060408301600083015184820360008601526127f68282612283565b915050602083015184820360208601526128108282612795565b9150508091505092915050565b6000602082019050818103600083015261283781846127d9565b905092915050565b7f4e487b7100000000000000000000000000000000000000000000000000000000600052602260045260246000fd5b6000600282049050600182168061288657607f821691505b6020821081036128995761289861283f565b5b50919050565b600081905092915050565b60008190508160005260206000209050919050565b600081546128cc8161286e565b6128d6818661289f565b945060018216600081146128f1576001811461290257612935565b60ff19831686528186019350612935565b61290b856128aa565b60005b8381101561292d5781548189015260018201915060208101905061290e565b838801955050505b50505092915050565b600061294a82846128bf565b915081905092915050565b600081905092915050565b600061296b82612234565b6129758185612955565b9350612985818560208601612250565b80840191505092915050565b600061299d8284612960565b915081905092915050565b600082825260208201905092915050565b7f4c6f7465206e6f206578697374656e74652e0000000000000000000000000000600082015250565b60006129ef6012836129a8565b91506129fa826129b9565b602082019050919050565b60006020820190508181036000830152612a1e816129e2565b9050919050565b7f4c6f746520796120656c61626f7261646f2e0000000000000000000000000000600082015250565b6000612a5b6012836129a8565b9150612a6682612a25565b602082019050919050565b60006020820190508181036000830152612a8a81612a4e565b9050919050565b7f4c6f7465207961207265676973747261646f2e00000000000000000000000000600082015250565b6000612ac76013836129a8565b9150612ad282612a91565b602082019050919050565b60006020820190508181036000830152612af681612aba565b9050919050565b7f4c6f7465207961207472616e73706f727461646f2e0000000000000000000000600082015250565b6000612b336015836129a8565b9150612b3e82612afd565b602082019050919050565b60006020820190508181036000830152612b6281612b26565b905091905056fea264697066735822122011599698b873f07e789bc42f5d9c0b62b80a6d732464e2b010cd627bee3055a864736f6c634300080d0033",
  "immutableReferences": {},
  "source": "// SPDX-License-Identifier: GPL-3.0\r\npragma solidity >=0.4.16 <0.9.0;\r\n\r\ncontract SupplyChain {\r\n    struct Lote {\r\n        string id_lote;\r\n        string lugar_crianza;\r\n        string alimento;\r\n        uint ganado;\r\n        bool transportado; // true si el lote ya fue transportado\r\n        bool elaborado; // true si el lote ya fue sacrificado\r\n        InfoTransporteGanado info_transporte;\r\n        InfoElaboracionCarne info_elaboracion;\r\n    }\r\n    struct InfoTransporteGanado {\r\n        string lugar_origen;\r\n        string lugar_destino;\r\n        string fecha_transporte;\r\n        string tiempo_transporte;\r\n    }\r\n\r\n    struct InfoElaboracionCarne {\r\n        string nombre_matadero;\r\n        string temperatura;\r\n        string humedad;\r\n        string tiempo_elaboracion;\r\n        string fecha_sacrificio;\r\n    }\r\n\r\n    struct Carne {\r\n        string lote;\r\n        InfoTransporteCarne info_transporte;\r\n    }\r\n\r\n    struct InfoTransporteCarne {\r\n        string lugar_origen;\r\n        string lugar_destino;\r\n    }\r\n\r\n    string vacio = \"\";\r\n    Lote[] lotes;\r\n    mapping(string => Lote) index_lotes;\r\n    Carne[] carnes;\r\n    mapping(string => Carne) index_carnes;\r\n\r\n    function setLote(string memory hash_lote, \r\n                string memory _id, \r\n                uint _ganado,\r\n                string memory _lugar_crianza, \r\n                string memory _alimento) public {\r\n        require(keccak256(bytes(index_lotes[hash_lote].id_lote)) == keccak256(bytes(vacio)), \"Lote ya registrado.\");\r\n        Lote memory lote;\r\n        lote.id_lote       = _id;\r\n        lote.lugar_crianza = _lugar_crianza;\r\n        lote.alimento      = _alimento;\r\n        lote.ganado        = _ganado;\r\n        index_lotes[hash_lote] = lote;\r\n        lotes.push(lote);\r\n    }\r\n\r\n    function getLote(string memory hash_lote) public view returns (Lote memory) {\r\n        return index_lotes[hash_lote];\r\n    }\r\n\r\n    function getLotes() public view returns (Lote[] memory) {\r\n        return lotes;\r\n    }\r\n\r\n    function setInfoTransporte(string memory hash_lote,\r\n                                string memory origen,\r\n                                string memory destino,\r\n                                string memory fecha,\r\n                                string memory tiempo) public {\r\n        require(keccak256(bytes(index_lotes[hash_lote].id_lote)) != keccak256(bytes(vacio)), \"Lote no existente.\");\r\n        require(!index_lotes[hash_lote].transportado, \"Lote ya transportado.\");\r\n        index_lotes[hash_lote].transportado                      = true;\r\n        index_lotes[hash_lote].info_transporte.lugar_origen      = origen;\r\n        index_lotes[hash_lote].info_transporte.lugar_destino     = destino;\r\n        index_lotes[hash_lote].info_transporte.fecha_transporte  = fecha;\r\n        index_lotes[hash_lote].info_transporte.tiempo_transporte = tiempo;\r\n    }\r\n\r\n    function setInfoElaboracion(string memory hash_lote,\r\n                                string memory matadero,\r\n                                string memory _temperatura,\r\n                                string memory _humedad,\r\n                                string memory tiempo,\r\n                                string memory fecha,\r\n                                string memory codigo_carne) public {\r\n        require(keccak256(bytes(index_lotes[hash_lote].id_lote)) != keccak256(bytes(vacio)), \"Lote no existente.\");\r\n        require(!index_lotes[hash_lote].elaborado, \"Lote ya elaborado.\");\r\n        index_lotes[hash_lote].elaborado                           = true;\r\n        index_lotes[hash_lote].info_elaboracion.nombre_matadero    = matadero;\r\n        index_lotes[hash_lote].info_elaboracion.temperatura        = _temperatura;\r\n        index_lotes[hash_lote].info_elaboracion.humedad            = _humedad;\r\n        index_lotes[hash_lote].info_elaboracion.tiempo_elaboracion = tiempo;\r\n        index_lotes[hash_lote].info_elaboracion.fecha_sacrificio   = fecha;\r\n        Carne memory carne;\r\n        carne.lote = hash_lote;\r\n        index_carnes[codigo_carne] = carne;\r\n        carnes.push(carne);\r\n    }\r\n\r\n    function getCarne(string memory hash_carne) public view returns (Carne memory) {\r\n        return index_carnes[hash_carne];\r\n    }\r\n}",
  "sourcePath": "D:\\proyectos\\react\\supply-chain-front\\contracts\\SupplyChain.sol",
  "compiler": {
    "name": "solc",
    "version": "0.8.13+commit.abaa5c0e.Emscripten.clang"
  },
  "schemaVersion": "3.4.7",
  "updatedAt": "2022-05-14T23:15:51.071Z",
  "networkType": "ethereum",
  "devdoc": {
    "kind": "dev",
    "methods": {},
    "version": 1
  },
  "userdoc": {
    "kind": "user",
    "methods": {},
    "version": 1
  }
}