{
  "contractName": "SupplyChain",
  "abi": [
    {
      "inputs": [
        {
          "internalType": "string",
          "name": "hash_lote",
          "type": "string"
        },
        {
          "internalType": "string",
          "name": "_id",
          "type": "string"
        },
        {
          "internalType": "uint256",
          "name": "_ganado",
          "type": "uint256"
        },
        {
          "internalType": "string",
          "name": "_lugar_crianza",
          "type": "string"
        },
        {
          "internalType": "string",
          "name": "_alimento",
          "type": "string"
        }
      ],
      "name": "setLote",
      "outputs": [],
      "stateMutability": "nonpayable",
      "type": "function"
    },
    {
      "inputs": [
        {
          "internalType": "string",
          "name": "hash_lote",
          "type": "string"
        }
      ],
      "name": "getLote",
      "outputs": [
        {
          "components": [
            {
              "internalType": "string",
              "name": "id_lote",
              "type": "string"
            },
            {
              "internalType": "string",
              "name": "lugar_crianza",
              "type": "string"
            },
            {
              "internalType": "string",
              "name": "alimento",
              "type": "string"
            },
            {
              "internalType": "uint256",
              "name": "ganado",
              "type": "uint256"
            },
            {
              "internalType": "bool",
              "name": "transportado",
              "type": "bool"
            },
            {
              "internalType": "bool",
              "name": "elaborado",
              "type": "bool"
            },
            {
              "components": [
                {
                  "internalType": "string",
                  "name": "lugar_origen",
                  "type": "string"
                },
                {
                  "internalType": "string",
                  "name": "lugar_destino",
                  "type": "string"
                },
                {
                  "internalType": "string",
                  "name": "fecha_transporte",
                  "type": "string"
                },
                {
                  "internalType": "string",
                  "name": "tiempo_transporte",
                  "type": "string"
                }
              ],
              "internalType": "struct SupplyChain.InfoTransporteGanado",
              "name": "info_transporte",
              "type": "tuple"
            },
            {
              "components": [
                {
                  "internalType": "string",
                  "name": "nombre_matadero",
                  "type": "string"
                },
                {
                  "internalType": "string",
                  "name": "temperatura",
                  "type": "string"
                },
                {
                  "internalType": "string",
                  "name": "humedad",
                  "type": "string"
                },
                {
                  "internalType": "string",
                  "name": "tiempo_elaboracion",
                  "type": "string"
                },
                {
                  "internalType": "string",
                  "name": "fecha_sacrificio",
                  "type": "string"
                }
              ],
              "internalType": "struct SupplyChain.InfoElaboracionCarne",
              "name": "info_elaboracion",
              "type": "tuple"
            },
            {
              "internalType": "bool",
              "name": "init",
              "type": "bool"
            }
          ],
          "internalType": "struct SupplyChain.Lote",
          "name": "",
          "type": "tuple"
        }
      ],
      "stateMutability": "view",
      "type": "function"
    },
    {
      "inputs": [],
      "name": "getLotes",
      "outputs": [
        {
          "components": [
            {
              "internalType": "string",
              "name": "id_lote",
              "type": "string"
            },
            {
              "internalType": "string",
              "name": "lugar_crianza",
              "type": "string"
            },
            {
              "internalType": "string",
              "name": "alimento",
              "type": "string"
            },
            {
              "internalType": "uint256",
              "name": "ganado",
              "type": "uint256"
            },
            {
              "internalType": "bool",
              "name": "transportado",
              "type": "bool"
            },
            {
              "internalType": "bool",
              "name": "elaborado",
              "type": "bool"
            },
            {
              "components": [
                {
                  "internalType": "string",
                  "name": "lugar_origen",
                  "type": "string"
                },
                {
                  "internalType": "string",
                  "name": "lugar_destino",
                  "type": "string"
                },
                {
                  "internalType": "string",
                  "name": "fecha_transporte",
                  "type": "string"
                },
                {
                  "internalType": "string",
                  "name": "tiempo_transporte",
                  "type": "string"
                }
              ],
              "internalType": "struct SupplyChain.InfoTransporteGanado",
              "name": "info_transporte",
              "type": "tuple"
            },
            {
              "components": [
                {
                  "internalType": "string",
                  "name": "nombre_matadero",
                  "type": "string"
                },
                {
                  "internalType": "string",
                  "name": "temperatura",
                  "type": "string"
                },
                {
                  "internalType": "string",
                  "name": "humedad",
                  "type": "string"
                },
                {
                  "internalType": "string",
                  "name": "tiempo_elaboracion",
                  "type": "string"
                },
                {
                  "internalType": "string",
                  "name": "fecha_sacrificio",
                  "type": "string"
                }
              ],
              "internalType": "struct SupplyChain.InfoElaboracionCarne",
              "name": "info_elaboracion",
              "type": "tuple"
            },
            {
              "internalType": "bool",
              "name": "init",
              "type": "bool"
            }
          ],
          "internalType": "struct SupplyChain.Lote[]",
          "name": "",
          "type": "tuple[]"
        }
      ],
      "stateMutability": "view",
      "type": "function"
    },
    {
      "inputs": [
        {
          "internalType": "string",
          "name": "hash_lote",
          "type": "string"
        },
        {
          "internalType": "string",
          "name": "origen",
          "type": "string"
        },
        {
          "internalType": "string",
          "name": "destino",
          "type": "string"
        },
        {
          "internalType": "string",
          "name": "fecha",
          "type": "string"
        },
        {
          "internalType": "string",
          "name": "tiempo",
          "type": "string"
        }
      ],
      "name": "setInfoTransporte",
      "outputs": [],
      "stateMutability": "nonpayable",
      "type": "function"
    },
    {
      "inputs": [
        {
          "internalType": "string",
          "name": "hash_lote",
          "type": "string"
        },
        {
          "internalType": "string",
          "name": "matadero",
          "type": "string"
        },
        {
          "internalType": "string",
          "name": "_temperatura",
          "type": "string"
        },
        {
          "internalType": "string",
          "name": "_humedad",
          "type": "string"
        },
        {
          "internalType": "string",
          "name": "tiempo",
          "type": "string"
        },
        {
          "internalType": "string",
          "name": "fecha",
          "type": "string"
        },
        {
          "internalType": "string",
          "name": "codigo_carne",
          "type": "string"
        }
      ],
      "name": "setInfoElaboracion",
      "outputs": [],
      "stateMutability": "nonpayable",
      "type": "function"
    },
    {
      "inputs": [
        {
          "internalType": "string",
          "name": "hash_carne",
          "type": "string"
        }
      ],
      "name": "getCarne",
      "outputs": [
        {
          "components": [
            {
              "internalType": "string",
              "name": "lote",
              "type": "string"
            },
            {
              "components": [
                {
                  "internalType": "string",
                  "name": "lugar_origen",
                  "type": "string"
                },
                {
                  "internalType": "string",
                  "name": "lugar_destino",
                  "type": "string"
                }
              ],
              "internalType": "struct SupplyChain.InfoTransporteCarne",
              "name": "info_transporte",
              "type": "tuple"
            }
          ],
          "internalType": "struct SupplyChain.Carne",
          "name": "",
          "type": "tuple"
        }
      ],
      "stateMutability": "view",
      "type": "function"
    }
  ],
  "bytecode": "0x608060405260405180602001604052806000815250600090805190602001906200002b92919062000040565b503480156200003957600080fd5b5062000154565b8280546200004e906200011f565b90600052602060002090601f016020900481019282620000725760008555620000be565b82601f106200008d57805160ff1916838001178555620000be565b82800160010185558215620000be579182015b82811115620000bd578251825591602001919060010190620000a0565b5b509050620000cd9190620000d1565b5090565b5b80821115620000ec576000816000905550600101620000d2565b5090565b7f4e487b7100000000000000000000000000000000000000000000000000000000600052602260045260246000fd5b600060028204905060018216806200013857607f821691505b6020821081036200014e576200014d620000f0565b5b50919050565b612c1e80620001646000396000f3fe608060405234801561001057600080fd5b50600436106100625760003560e01c80633c4bc74e146100675780636eaae69a146100835780638e8f25401461009f578063a967545f146100cf578063c2d1cefe146100ed578063e5cada0c14610109575b600080fd5b610081600480360381019061007c9190611fb9565b610139565b005b61009d60048036038101906100989190612155565b61049c565b005b6100b960048036038101906100b49190612240565b61097a565b6040516100c69190612526565b60405180910390f35b6100d761110e565b6040516100e491906126eb565b60405180910390f35b6101076004803603810190610102919061270d565b6118c9565b005b610123600480360381019061011e9190612240565b611acb565b604051610130919061289c565b60405180910390f35b60028760405161014991906128fa565b9081526020016040518091039020600e0160009054906101000a900460ff166101a7576040517f08c379a000000000000000000000000000000000000000000000000000000000815260040161019e9061296e565b60405180910390fd5b6002876040516101b791906128fa565b908152602001604051809103902060040160019054906101000a900460ff1615610216576040517f08c379a000000000000000000000000000000000000000000000000000000000815260040161020d906129da565b60405180910390fd5b600160028860405161022891906128fa565b908152602001604051809103902060040160016101000a81548160ff0219169083151502179055508560028860405161026191906128fa565b90815260200160405180910390206009016000019080519060200190610288929190611ccd565b508460028860405161029a91906128fa565b908152602001604051809103902060090160010190805190602001906102c1929190611ccd565b50836002886040516102d391906128fa565b908152602001604051809103902060090160020190805190602001906102fa929190611ccd565b508260028860405161030c91906128fa565b90815260200160405180910390206009016003019080519060200190610333929190611ccd565b508160028860405161034591906128fa565b9081526020016040518091039020600901600401908051906020019061036c929190611ccd565b50610375611d53565b8781600001819052508060048360405161038f91906128fa565b908152602001604051809103902060008201518160000190805190602001906103b9929190611ccd565b5060208201518160010160008201518160000190805190602001906103df929190611ccd565b5060208201518160010190805190602001906103fc929190611ccd565b5050509050506003819080600181540180825580915050600190039060005260206000209060030201600090919091909150600082015181600001908051906020019061044a929190611ccd565b506020820151816001016000820151816000019080519060200190610470929190611ccd565b50602082015181600101908051906020019061048d929190611ccd565b50505050505050505050505050565b60006040516104ab9190612af9565b60405180910390206002866040516104c391906128fa565b90815260200160405180910390206000016040516104e19190612af9565b604051809103902014610529576040517f08c379a000000000000000000000000000000000000000000000000000000000815260040161052090612b5c565b60405180910390fd5b610531611d73565b848160000181905250828160200181905250818160400181905250838160600181815250506001816101000190151590811515815250508060028760405161057991906128fa565b908152602001604051809103902060008201518160000190805190602001906105a3929190611ccd565b5060208201518160010190805190602001906105c0929190611ccd565b5060408201518160020190805190602001906105dd929190611ccd565b506060820151816003015560808201518160040160006101000a81548160ff02191690831515021790555060a08201518160040160016101000a81548160ff02191690831515021790555060c082015181600501600082015181600001908051906020019061064d929190611ccd565b50602082015181600101908051906020019061066a929190611ccd565b506040820151816002019080519060200190610687929190611ccd565b5060608201518160030190805190602001906106a4929190611ccd565b50505060e08201518160090160008201518160000190805190602001906106cc929190611ccd565b5060208201518160010190805190602001906106e9929190611ccd565b506040820151816002019080519060200190610706929190611ccd565b506060820151816003019080519060200190610723929190611ccd565b506080820151816004019080519060200190610740929190611ccd565b50505061010082015181600e0160006101000a81548160ff02191690831515021790555090505060018190806001815401808255809150506001900390600052602060002090600f020160009091909190915060008201518160000190805190602001906107af929190611ccd565b5060208201518160010190805190602001906107cc929190611ccd565b5060408201518160020190805190602001906107e9929190611ccd565b506060820151816003015560808201518160040160006101000a81548160ff02191690831515021790555060a08201518160040160016101000a81548160ff02191690831515021790555060c0820151816005016000820151816000019080519060200190610859929190611ccd565b506020820151816001019080519060200190610876929190611ccd565b506040820151816002019080519060200190610893929190611ccd565b5060608201518160030190805190602001906108b0929190611ccd565b50505060e08201518160090160008201518160000190805190602001906108d8929190611ccd565b5060208201518160010190805190602001906108f5929190611ccd565b506040820151816002019080519060200190610912929190611ccd565b50606082015181600301908051906020019061092f929190611ccd565b50608082015181600401908051906020019061094c929190611ccd565b50505061010082015181600e0160006101000a81548160ff0219169083151502179055505050505050505050565b610982611d73565b60028260405161099291906128fa565b9081526020016040518091039020604051806101200160405290816000820180546109bc90612a29565b80601f01602080910402602001604051908101604052809291908181526020018280546109e890612a29565b8015610a355780601f10610a0a57610100808354040283529160200191610a35565b820191906000526020600020905b815481529060010190602001808311610a1857829003601f168201915b50505050508152602001600182018054610a4e90612a29565b80601f0160208091040260200160405190810160405280929190818152602001828054610a7a90612a29565b8015610ac75780601f10610a9c57610100808354040283529160200191610ac7565b820191906000526020600020905b815481529060010190602001808311610aaa57829003601f168201915b50505050508152602001600282018054610ae090612a29565b80601f0160208091040260200160405190810160405280929190818152602001828054610b0c90612a29565b8015610b595780601f10610b2e57610100808354040283529160200191610b59565b820191906000526020600020905b815481529060010190602001808311610b3c57829003601f168201915b50505050508152602001600382015481526020016004820160009054906101000a900460ff161515151581526020016004820160019054906101000a900460ff1615151515815260200160058201604051806080016040529081600082018054610bc290612a29565b80601f0160208091040260200160405190810160405280929190818152602001828054610bee90612a29565b8015610c3b5780601f10610c1057610100808354040283529160200191610c3b565b820191906000526020600020905b815481529060010190602001808311610c1e57829003601f168201915b50505050508152602001600182018054610c5490612a29565b80601f0160208091040260200160405190810160405280929190818152602001828054610c8090612a29565b8015610ccd5780601f10610ca257610100808354040283529160200191610ccd565b820191906000526020600020905b815481529060010190602001808311610cb057829003601f168201915b50505050508152602001600282018054610ce690612a29565b80601f0160208091040260200160405190810160405280929190818152602001828054610d1290612a29565b8015610d5f5780601f10610d3457610100808354040283529160200191610d5f565b820191906000526020600020905b815481529060010190602001808311610d4257829003601f168201915b50505050508152602001600382018054610d7890612a29565b80601f0160208091040260200160405190810160405280929190818152602001828054610da490612a29565b8015610df15780601f10610dc657610100808354040283529160200191610df1565b820191906000526020600020905b815481529060010190602001808311610dd457829003601f168201915b5050505050815250508152602001600982016040518060a0016040529081600082018054610e1e90612a29565b80601f0160208091040260200160405190810160405280929190818152602001828054610e4a90612a29565b8015610e975780601f10610e6c57610100808354040283529160200191610e97565b820191906000526020600020905b815481529060010190602001808311610e7a57829003601f168201915b50505050508152602001600182018054610eb090612a29565b80601f0160208091040260200160405190810160405280929190818152602001828054610edc90612a29565b8015610f295780601f10610efe57610100808354040283529160200191610f29565b820191906000526020600020905b815481529060010190602001808311610f0c57829003601f168201915b50505050508152602001600282018054610f4290612a29565b80601f0160208091040260200160405190810160405280929190818152602001828054610f6e90612a29565b8015610fbb5780601f10610f9057610100808354040283529160200191610fbb565b820191906000526020600020905b815481529060010190602001808311610f9e57829003601f168201915b50505050508152602001600382018054610fd490612a29565b80601f016020809104026020016040519081016040528092919081815260200182805461100090612a29565b801561104d5780601f106110225761010080835404028352916020019161104d565b820191906000526020600020905b81548152906001019060200180831161103057829003601f168201915b5050505050815260200160048201805461106690612a29565b80601f016020809104026020016040519081016040528092919081815260200182805461109290612a29565b80156110df5780601f106110b4576101008083540402835291602001916110df565b820191906000526020600020905b8154815290600101906020018083116110c257829003601f168201915b5050505050815250508152602001600e820160009054906101000a900460ff1615151515815250509050919050565b60606001805480602002602001604051908101604052809291908181526020016000905b828210156118c057838290600052602060002090600f02016040518061012001604052908160008201805461116690612a29565b80601f016020809104026020016040519081016040528092919081815260200182805461119290612a29565b80156111df5780601f106111b4576101008083540402835291602001916111df565b820191906000526020600020905b8154815290600101906020018083116111c257829003601f168201915b505050505081526020016001820180546111f890612a29565b80601f016020809104026020016040519081016040528092919081815260200182805461122490612a29565b80156112715780601f1061124657610100808354040283529160200191611271565b820191906000526020600020905b81548152906001019060200180831161125457829003601f168201915b5050505050815260200160028201805461128a90612a29565b80601f01602080910402602001604051908101604052809291908181526020018280546112b690612a29565b80156113035780601f106112d857610100808354040283529160200191611303565b820191906000526020600020905b8154815290600101906020018083116112e657829003601f168201915b50505050508152602001600382015481526020016004820160009054906101000a900460ff161515151581526020016004820160019054906101000a900460ff161515151581526020016005820160405180608001604052908160008201805461136c90612a29565b80601f016020809104026020016040519081016040528092919081815260200182805461139890612a29565b80156113e55780601f106113ba576101008083540402835291602001916113e5565b820191906000526020600020905b8154815290600101906020018083116113c857829003601f168201915b505050505081526020016001820180546113fe90612a29565b80601f016020809104026020016040519081016040528092919081815260200182805461142a90612a29565b80156114775780601f1061144c57610100808354040283529160200191611477565b820191906000526020600020905b81548152906001019060200180831161145a57829003601f168201915b5050505050815260200160028201805461149090612a29565b80601f01602080910402602001604051908101604052809291908181526020018280546114bc90612a29565b80156115095780601f106114de57610100808354040283529160200191611509565b820191906000526020600020905b8154815290600101906020018083116114ec57829003601f168201915b5050505050815260200160038201805461152290612a29565b80601f016020809104026020016040519081016040528092919081815260200182805461154e90612a29565b801561159b5780601f106115705761010080835404028352916020019161159b565b820191906000526020600020905b81548152906001019060200180831161157e57829003601f168201915b5050505050815250508152602001600982016040518060a00160405290816000820180546115c890612a29565b80601f01602080910402602001604051908101604052809291908181526020018280546115f490612a29565b80156116415780601f1061161657610100808354040283529160200191611641565b820191906000526020600020905b81548152906001019060200180831161162457829003601f168201915b5050505050815260200160018201805461165a90612a29565b80601f016020809104026020016040519081016040528092919081815260200182805461168690612a29565b80156116d35780601f106116a8576101008083540402835291602001916116d3565b820191906000526020600020905b8154815290600101906020018083116116b657829003601f168201915b505050505081526020016002820180546116ec90612a29565b80601f016020809104026020016040519081016040528092919081815260200182805461171890612a29565b80156117655780601f1061173a57610100808354040283529160200191611765565b820191906000526020600020905b81548152906001019060200180831161174857829003601f168201915b5050505050815260200160038201805461177e90612a29565b80601f01602080910402602001604051908101604052809291908181526020018280546117aa90612a29565b80156117f75780601f106117cc576101008083540402835291602001916117f7565b820191906000526020600020905b8154815290600101906020018083116117da57829003601f168201915b5050505050815260200160048201805461181090612a29565b80601f016020809104026020016040519081016040528092919081815260200182805461183c90612a29565b80156118895780601f1061185e57610100808354040283529160200191611889565b820191906000526020600020905b81548152906001019060200180831161186c57829003601f168201915b5050505050815250508152602001600e820160009054906101000a900460ff16151515158152505081526020019060010190611132565b50505050905090565b6002856040516118d991906128fa565b9081526020016040518091039020600e0160009054906101000a900460ff16611937576040517f08c379a000000000000000000000000000000000000000000000000000000000815260040161192e9061296e565b60405180910390fd5b60028560405161194791906128fa565b908152602001604051809103902060040160009054906101000a900460ff16156119a6576040517f08c379a000000000000000000000000000000000000000000000000000000000815260040161199d90612bc8565b60405180910390fd5b60016002866040516119b891906128fa565b908152602001604051809103902060040160006101000a81548160ff021916908315150217905550836002866040516119f191906128fa565b90815260200160405180910390206005016000019080519060200190611a18929190611ccd565b5082600286604051611a2a91906128fa565b90815260200160405180910390206005016001019080519060200190611a51929190611ccd565b5081600286604051611a6391906128fa565b90815260200160405180910390206005016002019080519060200190611a8a929190611ccd565b5080600286604051611a9c91906128fa565b90815260200160405180910390206005016003019080519060200190611ac3929190611ccd565b505050505050565b611ad3611d53565b600482604051611ae391906128fa565b9081526020016040518091039020604051806040016040529081600082018054611b0c90612a29565b80601f0160208091040260200160405190810160405280929190818152602001828054611b3890612a29565b8015611b855780601f10611b5a57610100808354040283529160200191611b85565b820191906000526020600020905b815481529060010190602001808311611b6857829003601f168201915b5050505050815260200160018201604051806040016040529081600082018054611bae90612a29565b80601f0160208091040260200160405190810160405280929190818152602001828054611bda90612a29565b8015611c275780601f10611bfc57610100808354040283529160200191611c27565b820191906000526020600020905b815481529060010190602001808311611c0a57829003601f168201915b50505050508152602001600182018054611c4090612a29565b80601f0160208091040260200160405190810160405280929190818152602001828054611c6c90612a29565b8015611cb95780601f10611c8e57610100808354040283529160200191611cb9565b820191906000526020600020905b815481529060010190602001808311611c9c57829003601f168201915b505050505081525050815250509050919050565b828054611cd990612a29565b90600052602060002090601f016020900481019282611cfb5760008555611d42565b82601f10611d1457805160ff1916838001178555611d42565b82800160010185558215611d42579182015b82811115611d41578251825591602001919060010190611d26565b5b509050611d4f9190611dd1565b5090565b604051806040016040528060608152602001611d6d611dee565b81525090565b60405180610120016040528060608152602001606081526020016060815260200160008152602001600015158152602001600015158152602001611db5611e08565b8152602001611dc2611e30565b81526020016000151581525090565b5b80821115611dea576000816000905550600101611dd2565b5090565b604051806040016040528060608152602001606081525090565b6040518060800160405280606081526020016060815260200160608152602001606081525090565b6040518060a0016040528060608152602001606081526020016060815260200160608152602001606081525090565b6000604051905090565b600080fd5b600080fd5b600080fd5b600080fd5b6000601f19601f8301169050919050565b7f4e487b7100000000000000000000000000000000000000000000000000000000600052604160045260246000fd5b611ec682611e7d565b810181811067ffffffffffffffff82111715611ee557611ee4611e8e565b5b80604052505050565b6000611ef8611e5f565b9050611f048282611ebd565b919050565b600067ffffffffffffffff821115611f2457611f23611e8e565b5b611f2d82611e7d565b9050602081019050919050565b82818337600083830152505050565b6000611f5c611f5784611f09565b611eee565b905082815260208101848484011115611f7857611f77611e78565b5b611f83848285611f3a565b509392505050565b600082601f830112611fa057611f9f611e73565b5b8135611fb0848260208601611f49565b91505092915050565b600080600080600080600060e0888a031215611fd857611fd7611e69565b5b600088013567ffffffffffffffff811115611ff657611ff5611e6e565b5b6120028a828b01611f8b565b975050602088013567ffffffffffffffff81111561202357612022611e6e565b5b61202f8a828b01611f8b565b965050604088013567ffffffffffffffff8111156120505761204f611e6e565b5b61205c8a828b01611f8b565b955050606088013567ffffffffffffffff81111561207d5761207c611e6e565b5b6120898a828b01611f8b565b945050608088013567ffffffffffffffff8111156120aa576120a9611e6e565b5b6120b68a828b01611f8b565b93505060a088013567ffffffffffffffff8111156120d7576120d6611e6e565b5b6120e38a828b01611f8b565b92505060c088013567ffffffffffffffff81111561210457612103611e6e565b5b6121108a828b01611f8b565b91505092959891949750929550565b6000819050919050565b6121328161211f565b811461213d57600080fd5b50565b60008135905061214f81612129565b92915050565b600080600080600060a0868803121561217157612170611e69565b5b600086013567ffffffffffffffff81111561218f5761218e611e6e565b5b61219b88828901611f8b565b955050602086013567ffffffffffffffff8111156121bc576121bb611e6e565b5b6121c888828901611f8b565b94505060406121d988828901612140565b935050606086013567ffffffffffffffff8111156121fa576121f9611e6e565b5b61220688828901611f8b565b925050608086013567ffffffffffffffff81111561222757612226611e6e565b5b61223388828901611f8b565b9150509295509295909350565b60006020828403121561225657612255611e69565b5b600082013567ffffffffffffffff81111561227457612273611e6e565b5b61228084828501611f8b565b91505092915050565b600081519050919050565b600082825260208201905092915050565b60005b838110156122c35780820151818401526020810190506122a8565b838111156122d2576000848401525b50505050565b60006122e382612289565b6122ed8185612294565b93506122fd8185602086016122a5565b61230681611e7d565b840191505092915050565b61231a8161211f565b82525050565b60008115159050919050565b61233581612320565b82525050565b6000608083016000830151848203600086015261235882826122d8565b9150506020830151848203602086015261237282826122d8565b9150506040830151848203604086015261238c82826122d8565b915050606083015184820360608601526123a682826122d8565b9150508091505092915050565b600060a08301600083015184820360008601526123d082826122d8565b915050602083015184820360208601526123ea82826122d8565b9150506040830151848203604086015261240482826122d8565b9150506060830151848203606086015261241e82826122d8565b9150506080830151848203608086015261243882826122d8565b9150508091505092915050565b600061012083016000830151848203600086015261246382826122d8565b9150506020830151848203602086015261247d82826122d8565b9150506040830151848203604086015261249782826122d8565b91505060608301516124ac6060860182612311565b5060808301516124bf608086018261232c565b5060a08301516124d260a086018261232c565b5060c083015184820360c08601526124ea828261233b565b91505060e083015184820360e086015261250482826123b3565b91505061010083015161251b61010086018261232c565b508091505092915050565b600060208201905081810360008301526125408184612445565b905092915050565b600081519050919050565b600082825260208201905092915050565b6000819050602082019050919050565b600061012083016000830151848203600086015261259282826122d8565b915050602083015184820360208601526125ac82826122d8565b915050604083015184820360408601526125c682826122d8565b91505060608301516125db6060860182612311565b5060808301516125ee608086018261232c565b5060a083015161260160a086018261232c565b5060c083015184820360c0860152612619828261233b565b91505060e083015184820360e086015261263382826123b3565b91505061010083015161264a61010086018261232c565b508091505092915050565b60006126618383612574565b905092915050565b6000602082019050919050565b600061268182612548565b61268b8185612553565b93508360208202850161269d85612564565b8060005b858110156126d957848403895281516126ba8582612655565b94506126c583612669565b925060208a019950506001810190506126a1565b50829750879550505050505092915050565b600060208201905081810360008301526127058184612676565b905092915050565b600080600080600060a0868803121561272957612728611e69565b5b600086013567ffffffffffffffff81111561274757612746611e6e565b5b61275388828901611f8b565b955050602086013567ffffffffffffffff81111561277457612773611e6e565b5b61278088828901611f8b565b945050604086013567ffffffffffffffff8111156127a1576127a0611e6e565b5b6127ad88828901611f8b565b935050606086013567ffffffffffffffff8111156127ce576127cd611e6e565b5b6127da88828901611f8b565b925050608086013567ffffffffffffffff8111156127fb576127fa611e6e565b5b61280788828901611f8b565b9150509295509295909350565b6000604083016000830151848203600086015261283182826122d8565b9150506020830151848203602086015261284b82826122d8565b9150508091505092915050565b6000604083016000830151848203600086015261287582826122d8565b9150506020830151848203602086015261288f8282612814565b9150508091505092915050565b600060208201905081810360008301526128b68184612858565b905092915050565b600081905092915050565b60006128d482612289565b6128de81856128be565b93506128ee8185602086016122a5565b80840191505092915050565b600061290682846128c9565b915081905092915050565b600082825260208201905092915050565b7f4c6f7465206e6f206578697374656e74652e0000000000000000000000000000600082015250565b6000612958601283612911565b915061296382612922565b602082019050919050565b600060208201905081810360008301526129878161294b565b9050919050565b7f4c6f746520796120656c61626f7261646f2e0000000000000000000000000000600082015250565b60006129c4601283612911565b91506129cf8261298e565b602082019050919050565b600060208201905081810360008301526129f3816129b7565b9050919050565b7f4e487b7100000000000000000000000000000000000000000000000000000000600052602260045260246000fd5b60006002820490506001821680612a4157607f821691505b602082108103612a5457612a536129fa565b5b50919050565b600081905092915050565b60008190508160005260206000209050919050565b60008154612a8781612a29565b612a918186612a5a565b94506001821660008114612aac5760018114612abd57612af0565b60ff19831686528186019350612af0565b612ac685612a65565b60005b83811015612ae857815481890152600182019150602081019050612ac9565b838801955050505b50505092915050565b6000612b058284612a7a565b915081905092915050565b7f4c6f7465207961207265676973747261646f2e00000000000000000000000000600082015250565b6000612b46601383612911565b9150612b5182612b10565b602082019050919050565b60006020820190508181036000830152612b7581612b39565b9050919050565b7f4c6f7465207961207472616e73706f727461646f2e0000000000000000000000600082015250565b6000612bb2601583612911565b9150612bbd82612b7c565b602082019050919050565b60006020820190508181036000830152612be181612ba5565b905091905056fea264697066735822122008c98529676c3c0c77b2e018e9d832debc62f276ef01ea970d28ccc956a5ad7064736f6c634300080d0033",
  "immutableReferences": {},
  "source": "// SPDX-License-Identifier: GPL-3.0\r\npragma solidity >=0.4.16 <0.9.0;\r\n\r\ncontract SupplyChain {\r\n    struct Lote {\r\n        string id_lote;\r\n        string lugar_crianza;\r\n        string alimento;\r\n        uint ganado;\r\n        bool transportado; // true si el lote ya fue transportado\r\n        bool elaborado; // true si el lote ya fue sacrificado\r\n        InfoTransporteGanado info_transporte;\r\n        InfoElaboracionCarne info_elaboracion;\r\n        bool init;\r\n    }\r\n    struct InfoTransporteGanado {\r\n        string lugar_origen;\r\n        string lugar_destino;\r\n        string fecha_transporte;\r\n        string tiempo_transporte;\r\n    }\r\n\r\n    struct InfoElaboracionCarne {\r\n        string nombre_matadero;\r\n        string temperatura;\r\n        string humedad;\r\n        string tiempo_elaboracion;\r\n        string fecha_sacrificio;\r\n    }\r\n\r\n    struct Carne {\r\n        string lote;\r\n        InfoTransporteCarne info_transporte;\r\n    }\r\n\r\n    struct InfoTransporteCarne {\r\n        string lugar_origen;\r\n        string lugar_destino;\r\n    }\r\n\r\n    string vacio = \"\";\r\n    Lote[] lotes;\r\n    mapping(string => Lote) index_lotes;\r\n    Carne[] carnes;\r\n    mapping(string => Carne) index_carnes;\r\n\r\n    function setLote(string memory hash_lote, \r\n                string memory _id, \r\n                uint _ganado,\r\n                string memory _lugar_crianza, \r\n                string memory _alimento) public {\r\n        require(keccak256(bytes(index_lotes[hash_lote].id_lote)) == keccak256(bytes(vacio)), \"Lote ya registrado.\");\r\n        Lote memory lote;\r\n        lote.id_lote       = _id;\r\n        lote.lugar_crianza = _lugar_crianza;\r\n        lote.alimento      = _alimento;\r\n        lote.ganado        = _ganado;\r\n        lote.init          = true;\r\n        index_lotes[hash_lote] = lote;\r\n        lotes.push(lote);\r\n    }\r\n\r\n    function getLote(string memory hash_lote) public view returns (Lote memory) {\r\n        return index_lotes[hash_lote];\r\n    }\r\n\r\n    function getLotes() public view returns (Lote[] memory) {\r\n        return lotes;\r\n    }\r\n\r\n    function setInfoTransporte(string memory hash_lote,\r\n                                string memory origen,\r\n                                string memory destino,\r\n                                string memory fecha,\r\n                                string memory tiempo) public {\r\n        require(index_lotes[hash_lote].init, \"Lote no existente.\");\r\n        require(!index_lotes[hash_lote].transportado, \"Lote ya transportado.\");\r\n        index_lotes[hash_lote].transportado                      = true;\r\n        index_lotes[hash_lote].info_transporte.lugar_origen      = origen;\r\n        index_lotes[hash_lote].info_transporte.lugar_destino     = destino;\r\n        index_lotes[hash_lote].info_transporte.fecha_transporte  = fecha;\r\n        index_lotes[hash_lote].info_transporte.tiempo_transporte = tiempo;\r\n    }\r\n\r\n    function setInfoElaboracion(string memory hash_lote,\r\n                                string memory matadero,\r\n                                string memory _temperatura,\r\n                                string memory _humedad,\r\n                                string memory tiempo,\r\n                                string memory fecha,\r\n                                string memory codigo_carne) public {\r\n        require(index_lotes[hash_lote].init, \"Lote no existente.\");\r\n        require(!index_lotes[hash_lote].elaborado, \"Lote ya elaborado.\");\r\n        index_lotes[hash_lote].elaborado                           = true;\r\n        index_lotes[hash_lote].info_elaboracion.nombre_matadero    = matadero;\r\n        index_lotes[hash_lote].info_elaboracion.temperatura        = _temperatura;\r\n        index_lotes[hash_lote].info_elaboracion.humedad            = _humedad;\r\n        index_lotes[hash_lote].info_elaboracion.tiempo_elaboracion = tiempo;\r\n        index_lotes[hash_lote].info_elaboracion.fecha_sacrificio   = fecha;\r\n        Carne memory carne;\r\n        carne.lote = hash_lote;\r\n        index_carnes[codigo_carne] = carne;\r\n        carnes.push(carne);\r\n    }\r\n\r\n    function getCarne(string memory hash_carne) public view returns (Carne memory) {\r\n        return index_carnes[hash_carne];\r\n    }\r\n}",
  "sourcePath": "D:\\Proyectos\\react\\supply-chain-front\\contracts\\SupplyChain.sol",
  "compiler": {
    "name": "solc",
    "version": "0.8.13+commit.abaa5c0e.Emscripten.clang"
  },
  "schemaVersion": "3.4.7",
  "updatedAt": "2022-05-15T19:55:49.058Z",
  "devdoc": {
    "kind": "dev",
    "methods": {},
    "version": 1
  },
  "userdoc": {
    "kind": "user",
    "methods": {},
    "version": 1
  }
}