{
  "contractName": "SupplyChain",
  "abi": [
    {
      "inputs": [
        {
          "internalType": "string",
          "name": "hash_lote",
          "type": "string"
        },
        {
          "internalType": "string",
          "name": "_id",
          "type": "string"
        },
        {
          "internalType": "uint256",
          "name": "_ganado",
          "type": "uint256"
        },
        {
          "internalType": "string",
          "name": "_lugar_crianza",
          "type": "string"
        },
        {
          "internalType": "string",
          "name": "_alimento",
          "type": "string"
        }
      ],
      "name": "setLote",
      "outputs": [],
      "stateMutability": "nonpayable",
      "type": "function"
    },
    {
      "inputs": [
        {
          "internalType": "string",
          "name": "hash_lote",
          "type": "string"
        }
      ],
      "name": "getLote",
      "outputs": [
        {
          "components": [
            {
              "internalType": "string",
              "name": "id_lote",
              "type": "string"
            },
            {
              "internalType": "string",
              "name": "lugar_crianza",
              "type": "string"
            },
            {
              "internalType": "string",
              "name": "alimento",
              "type": "string"
            },
            {
              "internalType": "uint256",
              "name": "ganado",
              "type": "uint256"
            },
            {
              "internalType": "bool",
              "name": "transportado",
              "type": "bool"
            },
            {
              "internalType": "bool",
              "name": "elaborado",
              "type": "bool"
            },
            {
              "components": [
                {
                  "internalType": "string",
                  "name": "lugar_origen",
                  "type": "string"
                },
                {
                  "internalType": "string",
                  "name": "lugar_destino",
                  "type": "string"
                },
                {
                  "internalType": "string",
                  "name": "fecha_transporte",
                  "type": "string"
                },
                {
                  "internalType": "string",
                  "name": "tiempo_transporte",
                  "type": "string"
                }
              ],
              "internalType": "struct SupplyChain.InfoTransporteGanado",
              "name": "info_transporte",
              "type": "tuple"
            },
            {
              "components": [
                {
                  "internalType": "string",
                  "name": "nombre_matadero",
                  "type": "string"
                },
                {
                  "internalType": "string",
                  "name": "temperatura",
                  "type": "string"
                },
                {
                  "internalType": "string",
                  "name": "humedad",
                  "type": "string"
                },
                {
                  "internalType": "string",
                  "name": "tiempo_elaboracion",
                  "type": "string"
                },
                {
                  "internalType": "string",
                  "name": "fecha_sacrificio",
                  "type": "string"
                },
                {
                  "internalType": "string",
                  "name": "hash_carne",
                  "type": "string"
                }
              ],
              "internalType": "struct SupplyChain.InfoElaboracionCarne",
              "name": "info_elaboracion",
              "type": "tuple"
            },
            {
              "internalType": "bool",
              "name": "init",
              "type": "bool"
            }
          ],
          "internalType": "struct SupplyChain.Lote",
          "name": "",
          "type": "tuple"
        }
      ],
      "stateMutability": "view",
      "type": "function",
      "constant": true
    },
    {
      "inputs": [],
      "name": "getLotes",
      "outputs": [
        {
          "components": [
            {
              "internalType": "string",
              "name": "id_lote",
              "type": "string"
            },
            {
              "internalType": "string",
              "name": "lugar_crianza",
              "type": "string"
            },
            {
              "internalType": "string",
              "name": "alimento",
              "type": "string"
            },
            {
              "internalType": "uint256",
              "name": "ganado",
              "type": "uint256"
            },
            {
              "internalType": "bool",
              "name": "transportado",
              "type": "bool"
            },
            {
              "internalType": "bool",
              "name": "elaborado",
              "type": "bool"
            },
            {
              "components": [
                {
                  "internalType": "string",
                  "name": "lugar_origen",
                  "type": "string"
                },
                {
                  "internalType": "string",
                  "name": "lugar_destino",
                  "type": "string"
                },
                {
                  "internalType": "string",
                  "name": "fecha_transporte",
                  "type": "string"
                },
                {
                  "internalType": "string",
                  "name": "tiempo_transporte",
                  "type": "string"
                }
              ],
              "internalType": "struct SupplyChain.InfoTransporteGanado",
              "name": "info_transporte",
              "type": "tuple"
            },
            {
              "components": [
                {
                  "internalType": "string",
                  "name": "nombre_matadero",
                  "type": "string"
                },
                {
                  "internalType": "string",
                  "name": "temperatura",
                  "type": "string"
                },
                {
                  "internalType": "string",
                  "name": "humedad",
                  "type": "string"
                },
                {
                  "internalType": "string",
                  "name": "tiempo_elaboracion",
                  "type": "string"
                },
                {
                  "internalType": "string",
                  "name": "fecha_sacrificio",
                  "type": "string"
                },
                {
                  "internalType": "string",
                  "name": "hash_carne",
                  "type": "string"
                }
              ],
              "internalType": "struct SupplyChain.InfoElaboracionCarne",
              "name": "info_elaboracion",
              "type": "tuple"
            },
            {
              "internalType": "bool",
              "name": "init",
              "type": "bool"
            }
          ],
          "internalType": "struct SupplyChain.Lote[]",
          "name": "",
          "type": "tuple[]"
        }
      ],
      "stateMutability": "view",
      "type": "function",
      "constant": true
    },
    {
      "inputs": [],
      "name": "getHashLotes",
      "outputs": [
        {
          "internalType": "string[]",
          "name": "",
          "type": "string[]"
        }
      ],
      "stateMutability": "view",
      "type": "function",
      "constant": true
    },
    {
      "inputs": [
        {
          "internalType": "string",
          "name": "hash_lote",
          "type": "string"
        },
        {
          "internalType": "string",
          "name": "origen",
          "type": "string"
        },
        {
          "internalType": "string",
          "name": "destino",
          "type": "string"
        },
        {
          "internalType": "string",
          "name": "fecha",
          "type": "string"
        },
        {
          "internalType": "string",
          "name": "tiempo",
          "type": "string"
        }
      ],
      "name": "setInfoTransporte",
      "outputs": [],
      "stateMutability": "nonpayable",
      "type": "function"
    },
    {
      "inputs": [
        {
          "internalType": "string",
          "name": "hash_lote",
          "type": "string"
        },
        {
          "internalType": "string",
          "name": "matadero",
          "type": "string"
        },
        {
          "internalType": "string",
          "name": "_temperatura",
          "type": "string"
        },
        {
          "internalType": "string",
          "name": "_humedad",
          "type": "string"
        },
        {
          "internalType": "string",
          "name": "tiempo",
          "type": "string"
        },
        {
          "internalType": "string",
          "name": "fecha",
          "type": "string"
        },
        {
          "internalType": "string",
          "name": "codigo_carne",
          "type": "string"
        }
      ],
      "name": "setInfoElaboracion",
      "outputs": [],
      "stateMutability": "nonpayable",
      "type": "function"
    },
    {
      "inputs": [
        {
          "internalType": "string",
          "name": "hash_carne",
          "type": "string"
        }
      ],
      "name": "getInfoCarne",
      "outputs": [
        {
          "components": [
            {
              "internalType": "string",
              "name": "lote",
              "type": "string"
            },
            {
              "components": [
                {
                  "internalType": "string",
                  "name": "lugar_origen",
                  "type": "string"
                },
                {
                  "internalType": "string",
                  "name": "lugar_destino",
                  "type": "string"
                }
              ],
              "internalType": "struct SupplyChain.InfoTransporteCarne",
              "name": "info_transporte",
              "type": "tuple"
            },
            {
              "internalType": "bool",
              "name": "init",
              "type": "bool"
            }
          ],
          "internalType": "struct SupplyChain.Carne",
          "name": "",
          "type": "tuple"
        },
        {
          "components": [
            {
              "internalType": "string",
              "name": "id_lote",
              "type": "string"
            },
            {
              "internalType": "string",
              "name": "lugar_crianza",
              "type": "string"
            },
            {
              "internalType": "string",
              "name": "alimento",
              "type": "string"
            },
            {
              "internalType": "uint256",
              "name": "ganado",
              "type": "uint256"
            },
            {
              "internalType": "bool",
              "name": "transportado",
              "type": "bool"
            },
            {
              "internalType": "bool",
              "name": "elaborado",
              "type": "bool"
            },
            {
              "components": [
                {
                  "internalType": "string",
                  "name": "lugar_origen",
                  "type": "string"
                },
                {
                  "internalType": "string",
                  "name": "lugar_destino",
                  "type": "string"
                },
                {
                  "internalType": "string",
                  "name": "fecha_transporte",
                  "type": "string"
                },
                {
                  "internalType": "string",
                  "name": "tiempo_transporte",
                  "type": "string"
                }
              ],
              "internalType": "struct SupplyChain.InfoTransporteGanado",
              "name": "info_transporte",
              "type": "tuple"
            },
            {
              "components": [
                {
                  "internalType": "string",
                  "name": "nombre_matadero",
                  "type": "string"
                },
                {
                  "internalType": "string",
                  "name": "temperatura",
                  "type": "string"
                },
                {
                  "internalType": "string",
                  "name": "humedad",
                  "type": "string"
                },
                {
                  "internalType": "string",
                  "name": "tiempo_elaboracion",
                  "type": "string"
                },
                {
                  "internalType": "string",
                  "name": "fecha_sacrificio",
                  "type": "string"
                },
                {
                  "internalType": "string",
                  "name": "hash_carne",
                  "type": "string"
                }
              ],
              "internalType": "struct SupplyChain.InfoElaboracionCarne",
              "name": "info_elaboracion",
              "type": "tuple"
            },
            {
              "internalType": "bool",
              "name": "init",
              "type": "bool"
            }
          ],
          "internalType": "struct SupplyChain.Lote",
          "name": "",
          "type": "tuple"
        }
      ],
      "stateMutability": "view",
      "type": "function",
      "constant": true
    },
    {
      "inputs": [
        {
          "internalType": "string",
          "name": "hash_carne",
          "type": "string"
        }
      ],
      "name": "getCarne",
      "outputs": [
        {
          "components": [
            {
              "internalType": "string",
              "name": "lote",
              "type": "string"
            },
            {
              "components": [
                {
                  "internalType": "string",
                  "name": "lugar_origen",
                  "type": "string"
                },
                {
                  "internalType": "string",
                  "name": "lugar_destino",
                  "type": "string"
                }
              ],
              "internalType": "struct SupplyChain.InfoTransporteCarne",
              "name": "info_transporte",
              "type": "tuple"
            },
            {
              "internalType": "bool",
              "name": "init",
              "type": "bool"
            }
          ],
          "internalType": "struct SupplyChain.Carne",
          "name": "",
          "type": "tuple"
        }
      ],
      "stateMutability": "view",
      "type": "function",
      "constant": true
    }
  ],
  "bytecode": "0x608060405260405180602001604052806000815250600090805190602001906200002b92919062000040565b503480156200003957600080fd5b5062000154565b8280546200004e906200011f565b90600052602060002090601f016020900481019282620000725760008555620000be565b82601f106200008d57805160ff1916838001178555620000be565b82800160010185558215620000be579182015b82811115620000bd578251825591602001919060010190620000a0565b5b509050620000cd9190620000d1565b5090565b5b80821115620000ec576000816000905550600101620000d2565b5090565b7f4e487b7100000000000000000000000000000000000000000000000000000000600052602260045260246000fd5b600060028204905060018216806200013857607f821691505b6020821081036200014e576200014d620000f0565b5b50919050565b613bd880620001646000396000f3fe608060405234801561001057600080fd5b50600436106100885760003560e01c80638e8f25401161005b5780638e8f254014610114578063a967545f14610144578063c2d1cefe14610162578063e5cada0c1461017e57610088565b80630fbd228c1461008d5780633c4bc74e146100be5780636eaae69a146100da5780637f200350146100f6575b600080fd5b6100a760048036038101906100a29190612c6e565b6101ae565b6040516100b5929190613013565b60405180910390f35b6100d860048036038101906100d3919061304a565b610d0f565b005b6100f460048036038101906100ef91906131dc565b61104c565b005b6100fe611378565b60405161010b9190613389565b60405180910390f35b61012e60048036038101906101299190612c6e565b611451565b60405161013b91906133ab565b60405180910390f35b61014c611c77565b6040516101599190613570565b60405180910390f35b61017c60048036038101906101779190613592565b612553565b005b61019860048036038101906101939190612c6e565b612755565b6040516101a59190613699565b60405180910390f35b6101b6612972565b6101be61299b565b60006003846040516101d091906136f7565b908152602001604051809103902060000180546101ec9061373d565b80601f01602080910402602001604051908101604052809291908181526020018280546102189061373d565b80156102655780601f1061023a57610100808354040283529160200191610265565b820191906000526020600020905b81548152906001019060200180831161024857829003601f168201915b5050505050905060038460405161027c91906136f7565b908152602001604051809103902060030160009054906101000a900460ff166102da576040517f08c379a00000000000000000000000000000000000000000000000000000000081526004016102d1906137cb565b60405180910390fd5b6003846040516102ea91906136f7565b908152602001604051809103902060028260405161030891906136f7565b9081526020016040518091039020816040518060600160405290816000820180546103329061373d565b80601f016020809104026020016040519081016040528092919081815260200182805461035e9061373d565b80156103ab5780601f10610380576101008083540402835291602001916103ab565b820191906000526020600020905b81548152906001019060200180831161038e57829003601f168201915b50505050508152602001600182016040518060400160405290816000820180546103d49061373d565b80601f01602080910402602001604051908101604052809291908181526020018280546104009061373d565b801561044d5780601f106104225761010080835404028352916020019161044d565b820191906000526020600020905b81548152906001019060200180831161043057829003601f168201915b505050505081526020016001820180546104669061373d565b80601f01602080910402602001604051908101604052809291908181526020018280546104929061373d565b80156104df5780601f106104b4576101008083540402835291602001916104df565b820191906000526020600020905b8154815290600101906020018083116104c257829003601f168201915b50505050508152505081526020016003820160009054906101000a900460ff161515151581525050915080604051806101200160405290816000820180546105269061373d565b80601f01602080910402602001604051908101604052809291908181526020018280546105529061373d565b801561059f5780601f106105745761010080835404028352916020019161059f565b820191906000526020600020905b81548152906001019060200180831161058257829003601f168201915b505050505081526020016001820180546105b89061373d565b80601f01602080910402602001604051908101604052809291908181526020018280546105e49061373d565b80156106315780601f1061060657610100808354040283529160200191610631565b820191906000526020600020905b81548152906001019060200180831161061457829003601f168201915b5050505050815260200160028201805461064a9061373d565b80601f01602080910402602001604051908101604052809291908181526020018280546106769061373d565b80156106c35780601f10610698576101008083540402835291602001916106c3565b820191906000526020600020905b8154815290600101906020018083116106a657829003601f168201915b50505050508152602001600382015481526020016004820160009054906101000a900460ff161515151581526020016004820160019054906101000a900460ff161515151581526020016005820160405180608001604052908160008201805461072c9061373d565b80601f01602080910402602001604051908101604052809291908181526020018280546107589061373d565b80156107a55780601f1061077a576101008083540402835291602001916107a5565b820191906000526020600020905b81548152906001019060200180831161078857829003601f168201915b505050505081526020016001820180546107be9061373d565b80601f01602080910402602001604051908101604052809291908181526020018280546107ea9061373d565b80156108375780601f1061080c57610100808354040283529160200191610837565b820191906000526020600020905b81548152906001019060200180831161081a57829003601f168201915b505050505081526020016002820180546108509061373d565b80601f016020809104026020016040519081016040528092919081815260200182805461087c9061373d565b80156108c95780601f1061089e576101008083540402835291602001916108c9565b820191906000526020600020905b8154815290600101906020018083116108ac57829003601f168201915b505050505081526020016003820180546108e29061373d565b80601f016020809104026020016040519081016040528092919081815260200182805461090e9061373d565b801561095b5780601f106109305761010080835404028352916020019161095b565b820191906000526020600020905b81548152906001019060200180831161093e57829003601f168201915b5050505050815250508152602001600982016040518060c00160405290816000820180546109889061373d565b80601f01602080910402602001604051908101604052809291908181526020018280546109b49061373d565b8015610a015780601f106109d657610100808354040283529160200191610a01565b820191906000526020600020905b8154815290600101906020018083116109e457829003601f168201915b50505050508152602001600182018054610a1a9061373d565b80601f0160208091040260200160405190810160405280929190818152602001828054610a469061373d565b8015610a935780601f10610a6857610100808354040283529160200191610a93565b820191906000526020600020905b815481529060010190602001808311610a7657829003601f168201915b50505050508152602001600282018054610aac9061373d565b80601f0160208091040260200160405190810160405280929190818152602001828054610ad89061373d565b8015610b255780601f10610afa57610100808354040283529160200191610b25565b820191906000526020600020905b815481529060010190602001808311610b0857829003601f168201915b50505050508152602001600382018054610b3e9061373d565b80601f0160208091040260200160405190810160405280929190818152602001828054610b6a9061373d565b8015610bb75780601f10610b8c57610100808354040283529160200191610bb7565b820191906000526020600020905b815481529060010190602001808311610b9a57829003601f168201915b50505050508152602001600482018054610bd09061373d565b80601f0160208091040260200160405190810160405280929190818152602001828054610bfc9061373d565b8015610c495780601f10610c1e57610100808354040283529160200191610c49565b820191906000526020600020905b815481529060010190602001808311610c2c57829003601f168201915b50505050508152602001600582018054610c629061373d565b80601f0160208091040260200160405190810160405280929190818152602001828054610c8e9061373d565b8015610cdb5780601f10610cb057610100808354040283529160200191610cdb565b820191906000526020600020905b815481529060010190602001808311610cbe57829003601f168201915b5050505050815250508152602001600f820160009054906101000a900460ff16151515158152505090509250925050915091565b600287604051610d1f91906136f7565b9081526020016040518091039020600f0160009054906101000a900460ff16610d7d576040517f08c379a0000000000000000000000000000000000000000000000000000000008152600401610d7490613837565b60405180910390fd5b600287604051610d8d91906136f7565b908152602001604051809103902060040160019054906101000a900460ff1615610dec576040517f08c379a0000000000000000000000000000000000000000000000000000000008152600401610de3906138a3565b60405180910390fd5b6001600288604051610dfe91906136f7565b908152602001604051809103902060040160016101000a81548160ff02191690831515021790555085600288604051610e3791906136f7565b90815260200160405180910390206009016000019080519060200190610e5e9291906129f9565b5084600288604051610e7091906136f7565b90815260200160405180910390206009016001019080519060200190610e979291906129f9565b5083600288604051610ea991906136f7565b90815260200160405180910390206009016002019080519060200190610ed09291906129f9565b5082600288604051610ee291906136f7565b90815260200160405180910390206009016003019080519060200190610f099291906129f9565b5081600288604051610f1b91906136f7565b90815260200160405180910390206009016004019080519060200190610f429291906129f9565b5080600288604051610f5491906136f7565b90815260200160405180910390206009016005019080519060200190610f7b9291906129f9565b50610f84612972565b878160000181905250600181604001901515908115158152505080600383604051610faf91906136f7565b90815260200160405180910390206000820151816000019080519060200190610fd99291906129f9565b506020820151816001016000820151816000019080519060200190610fff9291906129f9565b50602082015181600101908051906020019061101c9291906129f9565b50505060408201518160030160006101000a81548160ff0219169083151502179055509050505050505050505050565b600060405161105b9190613962565b604051809103902060028660405161107391906136f7565b90815260200160405180910390206000016040516110919190613962565b6040518091039020146110d9576040517f08c379a00000000000000000000000000000000000000000000000000000000081526004016110d0906139c5565b60405180910390fd5b6110e161299b565b848160000181905250828160200181905250818160400181905250838160600181815250506001816101000190151590811515815250508060028760405161112991906136f7565b908152602001604051809103902060008201518160000190805190602001906111539291906129f9565b5060208201518160010190805190602001906111709291906129f9565b50604082015181600201908051906020019061118d9291906129f9565b506060820151816003015560808201518160040160006101000a81548160ff02191690831515021790555060a08201518160040160016101000a81548160ff02191690831515021790555060c08201518160050160008201518160000190805190602001906111fd9291906129f9565b50602082015181600101908051906020019061121a9291906129f9565b5060408201518160020190805190602001906112379291906129f9565b5060608201518160030190805190602001906112549291906129f9565b50505060e082015181600901600082015181600001908051906020019061127c9291906129f9565b5060208201518160010190805190602001906112999291906129f9565b5060408201518160020190805190602001906112b69291906129f9565b5060608201518160030190805190602001906112d39291906129f9565b5060808201518160040190805190602001906112f09291906129f9565b5060a082015181600501908051906020019061130d9291906129f9565b50505061010082015181600f0160006101000a81548160ff02191690831515021790555090505060018690806001815401808255809150506001900390600052602060002001600090919091909150908051906020019061136f9291906129f9565b50505050505050565b60606001805480602002602001604051908101604052809291908181526020016000905b828210156114485783829060005260206000200180546113bb9061373d565b80601f01602080910402602001604051908101604052809291908181526020018280546113e79061373d565b80156114345780601f1061140957610100808354040283529160200191611434565b820191906000526020600020905b81548152906001019060200180831161141757829003601f168201915b50505050508152602001906001019061139c565b50505050905090565b61145961299b565b60028260405161146991906136f7565b9081526020016040518091039020604051806101200160405290816000820180546114939061373d565b80601f01602080910402602001604051908101604052809291908181526020018280546114bf9061373d565b801561150c5780601f106114e15761010080835404028352916020019161150c565b820191906000526020600020905b8154815290600101906020018083116114ef57829003601f168201915b505050505081526020016001820180546115259061373d565b80601f01602080910402602001604051908101604052809291908181526020018280546115519061373d565b801561159e5780601f106115735761010080835404028352916020019161159e565b820191906000526020600020905b81548152906001019060200180831161158157829003601f168201915b505050505081526020016002820180546115b79061373d565b80601f01602080910402602001604051908101604052809291908181526020018280546115e39061373d565b80156116305780601f1061160557610100808354040283529160200191611630565b820191906000526020600020905b81548152906001019060200180831161161357829003601f168201915b50505050508152602001600382015481526020016004820160009054906101000a900460ff161515151581526020016004820160019054906101000a900460ff16151515158152602001600582016040518060800160405290816000820180546116999061373d565b80601f01602080910402602001604051908101604052809291908181526020018280546116c59061373d565b80156117125780601f106116e757610100808354040283529160200191611712565b820191906000526020600020905b8154815290600101906020018083116116f557829003601f168201915b5050505050815260200160018201805461172b9061373d565b80601f01602080910402602001604051908101604052809291908181526020018280546117579061373d565b80156117a45780601f10611779576101008083540402835291602001916117a4565b820191906000526020600020905b81548152906001019060200180831161178757829003601f168201915b505050505081526020016002820180546117bd9061373d565b80601f01602080910402602001604051908101604052809291908181526020018280546117e99061373d565b80156118365780601f1061180b57610100808354040283529160200191611836565b820191906000526020600020905b81548152906001019060200180831161181957829003601f168201915b5050505050815260200160038201805461184f9061373d565b80601f016020809104026020016040519081016040528092919081815260200182805461187b9061373d565b80156118c85780601f1061189d576101008083540402835291602001916118c8565b820191906000526020600020905b8154815290600101906020018083116118ab57829003601f168201915b5050505050815250508152602001600982016040518060c00160405290816000820180546118f59061373d565b80601f01602080910402602001604051908101604052809291908181526020018280546119219061373d565b801561196e5780601f106119435761010080835404028352916020019161196e565b820191906000526020600020905b81548152906001019060200180831161195157829003601f168201915b505050505081526020016001820180546119879061373d565b80601f01602080910402602001604051908101604052809291908181526020018280546119b39061373d565b8015611a005780601f106119d557610100808354040283529160200191611a00565b820191906000526020600020905b8154815290600101906020018083116119e357829003601f168201915b50505050508152602001600282018054611a199061373d565b80601f0160208091040260200160405190810160405280929190818152602001828054611a459061373d565b8015611a925780601f10611a6757610100808354040283529160200191611a92565b820191906000526020600020905b815481529060010190602001808311611a7557829003601f168201915b50505050508152602001600382018054611aab9061373d565b80601f0160208091040260200160405190810160405280929190818152602001828054611ad79061373d565b8015611b245780601f10611af957610100808354040283529160200191611b24565b820191906000526020600020905b815481529060010190602001808311611b0757829003601f168201915b50505050508152602001600482018054611b3d9061373d565b80601f0160208091040260200160405190810160405280929190818152602001828054611b699061373d565b8015611bb65780601f10611b8b57610100808354040283529160200191611bb6565b820191906000526020600020905b815481529060010190602001808311611b9957829003601f168201915b50505050508152602001600582018054611bcf9061373d565b80601f0160208091040260200160405190810160405280929190818152602001828054611bfb9061373d565b8015611c485780601f10611c1d57610100808354040283529160200191611c48565b820191906000526020600020905b815481529060010190602001808311611c2b57829003601f168201915b5050505050815250508152602001600f820160009054906101000a900460ff1615151515815250509050919050565b6060600060018054905067ffffffffffffffff811115611c9a57611c99612b43565b5b604051908082528060200260200182016040528015611cd357816020015b611cc061299b565b815260200190600190039081611cb85790505b50905060005b60018054905081101561254b57600260018281548110611cfc57611cfb6139e5565b5b90600052602060002001604051611d139190613aa8565b908152602001604051809103902060405180610120016040529081600082018054611d3d9061373d565b80601f0160208091040260200160405190810160405280929190818152602001828054611d699061373d565b8015611db65780601f10611d8b57610100808354040283529160200191611db6565b820191906000526020600020905b815481529060010190602001808311611d9957829003601f168201915b50505050508152602001600182018054611dcf9061373d565b80601f0160208091040260200160405190810160405280929190818152602001828054611dfb9061373d565b8015611e485780601f10611e1d57610100808354040283529160200191611e48565b820191906000526020600020905b815481529060010190602001808311611e2b57829003601f168201915b50505050508152602001600282018054611e619061373d565b80601f0160208091040260200160405190810160405280929190818152602001828054611e8d9061373d565b8015611eda5780601f10611eaf57610100808354040283529160200191611eda565b820191906000526020600020905b815481529060010190602001808311611ebd57829003601f168201915b50505050508152602001600382015481526020016004820160009054906101000a900460ff161515151581526020016004820160019054906101000a900460ff1615151515815260200160058201604051806080016040529081600082018054611f439061373d565b80601f0160208091040260200160405190810160405280929190818152602001828054611f6f9061373d565b8015611fbc5780601f10611f9157610100808354040283529160200191611fbc565b820191906000526020600020905b815481529060010190602001808311611f9f57829003601f168201915b50505050508152602001600182018054611fd59061373d565b80601f01602080910402602001604051908101604052809291908181526020018280546120019061373d565b801561204e5780601f106120235761010080835404028352916020019161204e565b820191906000526020600020905b81548152906001019060200180831161203157829003601f168201915b505050505081526020016002820180546120679061373d565b80601f01602080910402602001604051908101604052809291908181526020018280546120939061373d565b80156120e05780601f106120b5576101008083540402835291602001916120e0565b820191906000526020600020905b8154815290600101906020018083116120c357829003601f168201915b505050505081526020016003820180546120f99061373d565b80601f01602080910402602001604051908101604052809291908181526020018280546121259061373d565b80156121725780601f1061214757610100808354040283529160200191612172565b820191906000526020600020905b81548152906001019060200180831161215557829003601f168201915b5050505050815250508152602001600982016040518060c001604052908160008201805461219f9061373d565b80601f01602080910402602001604051908101604052809291908181526020018280546121cb9061373d565b80156122185780601f106121ed57610100808354040283529160200191612218565b820191906000526020600020905b8154815290600101906020018083116121fb57829003601f168201915b505050505081526020016001820180546122319061373d565b80601f016020809104026020016040519081016040528092919081815260200182805461225d9061373d565b80156122aa5780601f1061227f576101008083540402835291602001916122aa565b820191906000526020600020905b81548152906001019060200180831161228d57829003601f168201915b505050505081526020016002820180546122c39061373d565b80601f01602080910402602001604051908101604052809291908181526020018280546122ef9061373d565b801561233c5780601f106123115761010080835404028352916020019161233c565b820191906000526020600020905b81548152906001019060200180831161231f57829003601f168201915b505050505081526020016003820180546123559061373d565b80601f01602080910402602001604051908101604052809291908181526020018280546123819061373d565b80156123ce5780601f106123a3576101008083540402835291602001916123ce565b820191906000526020600020905b8154815290600101906020018083116123b157829003601f168201915b505050505081526020016004820180546123e79061373d565b80601f01602080910402602001604051908101604052809291908181526020018280546124139061373d565b80156124605780601f1061243557610100808354040283529160200191612460565b820191906000526020600020905b81548152906001019060200180831161244357829003601f168201915b505050505081526020016005820180546124799061373d565b80601f01602080910402602001604051908101604052809291908181526020018280546124a59061373d565b80156124f25780601f106124c7576101008083540402835291602001916124f2565b820191906000526020600020905b8154815290600101906020018083116124d557829003601f168201915b5050505050815250508152602001600f820160009054906101000a900460ff16151515158152505082828151811061252d5761252c6139e5565b5b6020026020010181905250808061254390613aee565b915050611cd9565b508091505090565b60028560405161256391906136f7565b9081526020016040518091039020600f0160009054906101000a900460ff166125c1576040517f08c379a00000000000000000000000000000000000000000000000000000000081526004016125b890613837565b60405180910390fd5b6002856040516125d191906136f7565b908152602001604051809103902060040160009054906101000a900460ff1615612630576040517f08c379a000000000000000000000000000000000000000000000000000000000815260040161262790613b82565b60405180910390fd5b600160028660405161264291906136f7565b908152602001604051809103902060040160006101000a81548160ff0219169083151502179055508360028660405161267b91906136f7565b908152602001604051809103902060050160000190805190602001906126a29291906129f9565b50826002866040516126b491906136f7565b908152602001604051809103902060050160010190805190602001906126db9291906129f9565b50816002866040516126ed91906136f7565b908152602001604051809103902060050160020190805190602001906127149291906129f9565b508060028660405161272691906136f7565b9081526020016040518091039020600501600301908051906020019061274d9291906129f9565b505050505050565b61275d612972565b60038260405161276d91906136f7565b90815260200160405180910390206040518060600160405290816000820180546127969061373d565b80601f01602080910402602001604051908101604052809291908181526020018280546127c29061373d565b801561280f5780601f106127e45761010080835404028352916020019161280f565b820191906000526020600020905b8154815290600101906020018083116127f257829003601f168201915b50505050508152602001600182016040518060400160405290816000820180546128389061373d565b80601f01602080910402602001604051908101604052809291908181526020018280546128649061373d565b80156128b15780601f10612886576101008083540402835291602001916128b1565b820191906000526020600020905b81548152906001019060200180831161289457829003601f168201915b505050505081526020016001820180546128ca9061373d565b80601f01602080910402602001604051908101604052809291908181526020018280546128f69061373d565b80156129435780601f1061291857610100808354040283529160200191612943565b820191906000526020600020905b81548152906001019060200180831161292657829003601f168201915b50505050508152505081526020016003820160009054906101000a900460ff1615151515815250509050919050565b60405180606001604052806060815260200161298c612a7f565b81526020016000151581525090565b604051806101200160405280606081526020016060815260200160608152602001600081526020016000151581526020016000151581526020016129dd612a99565b81526020016129ea612ac1565b81526020016000151581525090565b828054612a059061373d565b90600052602060002090601f016020900481019282612a275760008555612a6e565b82601f10612a4057805160ff1916838001178555612a6e565b82800160010185558215612a6e579182015b82811115612a6d578251825591602001919060010190612a52565b5b509050612a7b9190612af7565b5090565b604051806040016040528060608152602001606081525090565b6040518060800160405280606081526020016060815260200160608152602001606081525090565b6040518060c001604052806060815260200160608152602001606081526020016060815260200160608152602001606081525090565b5b80821115612b10576000816000905550600101612af8565b5090565b6000604051905090565b600080fd5b600080fd5b600080fd5b600080fd5b6000601f19601f8301169050919050565b7f4e487b7100000000000000000000000000000000000000000000000000000000600052604160045260246000fd5b612b7b82612b32565b810181811067ffffffffffffffff82111715612b9a57612b99612b43565b5b80604052505050565b6000612bad612b14565b9050612bb98282612b72565b919050565b600067ffffffffffffffff821115612bd957612bd8612b43565b5b612be282612b32565b9050602081019050919050565b82818337600083830152505050565b6000612c11612c0c84612bbe565b612ba3565b905082815260208101848484011115612c2d57612c2c612b2d565b5b612c38848285612bef565b509392505050565b600082601f830112612c5557612c54612b28565b5b8135612c65848260208601612bfe565b91505092915050565b600060208284031215612c8457612c83612b1e565b5b600082013567ffffffffffffffff811115612ca257612ca1612b23565b5b612cae84828501612c40565b91505092915050565b600081519050919050565b600082825260208201905092915050565b60005b83811015612cf1578082015181840152602081019050612cd6565b83811115612d00576000848401525b50505050565b6000612d1182612cb7565b612d1b8185612cc2565b9350612d2b818560208601612cd3565b612d3481612b32565b840191505092915050565b60006040830160008301518482036000860152612d5c8282612d06565b91505060208301518482036020860152612d768282612d06565b9150508091505092915050565b60008115159050919050565b612d9881612d83565b82525050565b60006060830160008301518482036000860152612dbb8282612d06565b91505060208301518482036020860152612dd58282612d3f565b9150506040830151612dea6040860182612d8f565b508091505092915050565b6000819050919050565b612e0881612df5565b82525050565b60006080830160008301518482036000860152612e2b8282612d06565b91505060208301518482036020860152612e458282612d06565b91505060408301518482036040860152612e5f8282612d06565b91505060608301518482036060860152612e798282612d06565b9150508091505092915050565b600060c0830160008301518482036000860152612ea38282612d06565b91505060208301518482036020860152612ebd8282612d06565b91505060408301518482036040860152612ed78282612d06565b91505060608301518482036060860152612ef18282612d06565b91505060808301518482036080860152612f0b8282612d06565b91505060a083015184820360a0860152612f258282612d06565b9150508091505092915050565b6000610120830160008301518482036000860152612f508282612d06565b91505060208301518482036020860152612f6a8282612d06565b91505060408301518482036040860152612f848282612d06565b9150506060830151612f996060860182612dff565b506080830151612fac6080860182612d8f565b5060a0830151612fbf60a0860182612d8f565b5060c083015184820360c0860152612fd78282612e0e565b91505060e083015184820360e0860152612ff18282612e86565b915050610100830151613008610100860182612d8f565b508091505092915050565b6000604082019050818103600083015261302d8185612d9e565b905081810360208301526130418184612f32565b90509392505050565b600080600080600080600060e0888a03121561306957613068612b1e565b5b600088013567ffffffffffffffff81111561308757613086612b23565b5b6130938a828b01612c40565b975050602088013567ffffffffffffffff8111156130b4576130b3612b23565b5b6130c08a828b01612c40565b965050604088013567ffffffffffffffff8111156130e1576130e0612b23565b5b6130ed8a828b01612c40565b955050606088013567ffffffffffffffff81111561310e5761310d612b23565b5b61311a8a828b01612c40565b945050608088013567ffffffffffffffff81111561313b5761313a612b23565b5b6131478a828b01612c40565b93505060a088013567ffffffffffffffff81111561316857613167612b23565b5b6131748a828b01612c40565b92505060c088013567ffffffffffffffff81111561319557613194612b23565b5b6131a18a828b01612c40565b91505092959891949750929550565b6131b981612df5565b81146131c457600080fd5b50565b6000813590506131d6816131b0565b92915050565b600080600080600060a086880312156131f8576131f7612b1e565b5b600086013567ffffffffffffffff81111561321657613215612b23565b5b61322288828901612c40565b955050602086013567ffffffffffffffff81111561324357613242612b23565b5b61324f88828901612c40565b9450506040613260888289016131c7565b935050606086013567ffffffffffffffff81111561328157613280612b23565b5b61328d88828901612c40565b925050608086013567ffffffffffffffff8111156132ae576132ad612b23565b5b6132ba88828901612c40565b9150509295509295909350565b600081519050919050565b600082825260208201905092915050565b6000819050602082019050919050565b60006132ff8383612d06565b905092915050565b6000602082019050919050565b600061331f826132c7565b61332981856132d2565b93508360208202850161333b856132e3565b8060005b85811015613377578484038952815161335885826132f3565b945061336383613307565b925060208a0199505060018101905061333f565b50829750879550505050505092915050565b600060208201905081810360008301526133a38184613314565b905092915050565b600060208201905081810360008301526133c58184612f32565b905092915050565b600081519050919050565b600082825260208201905092915050565b6000819050602082019050919050565b60006101208301600083015184820360008601526134178282612d06565b915050602083015184820360208601526134318282612d06565b9150506040830151848203604086015261344b8282612d06565b91505060608301516134606060860182612dff565b5060808301516134736080860182612d8f565b5060a083015161348660a0860182612d8f565b5060c083015184820360c086015261349e8282612e0e565b91505060e083015184820360e08601526134b88282612e86565b9150506101008301516134cf610100860182612d8f565b508091505092915050565b60006134e683836133f9565b905092915050565b6000602082019050919050565b6000613506826133cd565b61351081856133d8565b935083602082028501613522856133e9565b8060005b8581101561355e578484038952815161353f85826134da565b945061354a836134ee565b925060208a01995050600181019050613526565b50829750879550505050505092915050565b6000602082019050818103600083015261358a81846134fb565b905092915050565b600080600080600060a086880312156135ae576135ad612b1e565b5b600086013567ffffffffffffffff8111156135cc576135cb612b23565b5b6135d888828901612c40565b955050602086013567ffffffffffffffff8111156135f9576135f8612b23565b5b61360588828901612c40565b945050604086013567ffffffffffffffff81111561362657613625612b23565b5b61363288828901612c40565b935050606086013567ffffffffffffffff81111561365357613652612b23565b5b61365f88828901612c40565b925050608086013567ffffffffffffffff8111156136805761367f612b23565b5b61368c88828901612c40565b9150509295509295909350565b600060208201905081810360008301526136b38184612d9e565b905092915050565b600081905092915050565b60006136d182612cb7565b6136db81856136bb565b93506136eb818560208601612cd3565b80840191505092915050565b600061370382846136c6565b915081905092915050565b7f4e487b7100000000000000000000000000000000000000000000000000000000600052602260045260246000fd5b6000600282049050600182168061375557607f821691505b6020821081036137685761376761370e565b5b50919050565b600082825260208201905092915050565b7f4361726e65206e6f206578697374656e74652e00000000000000000000000000600082015250565b60006137b560138361376e565b91506137c08261377f565b602082019050919050565b600060208201905081810360008301526137e4816137a8565b9050919050565b7f4c6f7465206e6f206578697374656e74652e0000000000000000000000000000600082015250565b600061382160128361376e565b915061382c826137eb565b602082019050919050565b6000602082019050818103600083015261385081613814565b9050919050565b7f4c6f746520796120656c61626f7261646f2e0000000000000000000000000000600082015250565b600061388d60128361376e565b915061389882613857565b602082019050919050565b600060208201905081810360008301526138bc81613880565b9050919050565b600081905092915050565b60008190508160005260206000209050919050565b600081546138f08161373d565b6138fa81866138c3565b94506001821660008114613915576001811461392657613959565b60ff19831686528186019350613959565b61392f856138ce565b60005b8381101561395157815481890152600182019150602081019050613932565b838801955050505b50505092915050565b600061396e82846138e3565b915081905092915050565b7f4c6f7465207961207265676973747261646f2e00000000000000000000000000600082015250565b60006139af60138361376e565b91506139ba82613979565b602082019050919050565b600060208201905081810360008301526139de816139a2565b9050919050565b7f4e487b7100000000000000000000000000000000000000000000000000000000600052603260045260246000fd5b60008190508160005260206000209050919050565b60008154613a368161373d565b613a4081866136bb565b94506001821660008114613a5b5760018114613a6c57613a9f565b60ff19831686528186019350613a9f565b613a7585613a14565b60005b83811015613a9757815481890152600182019150602081019050613a78565b838801955050505b50505092915050565b6000613ab48284613a29565b915081905092915050565b7f4e487b7100000000000000000000000000000000000000000000000000000000600052601160045260246000fd5b6000613af982612df5565b91507fffffffffffffffffffffffffffffffffffffffffffffffffffffffffffffffff8203613b2b57613b2a613abf565b5b600182019050919050565b7f4c6f7465207961207472616e73706f727461646f2e0000000000000000000000600082015250565b6000613b6c60158361376e565b9150613b7782613b36565b602082019050919050565b60006020820190508181036000830152613b9b81613b5f565b905091905056fea26469706673582212203c253004fe074618b57295dca504d155e26d3f713442aec350f27b8b65254dea64736f6c634300080d0033",
  "immutableReferences": {},
  "source": "// SPDX-License-Identifier: GPL-3.0\r\npragma solidity >=0.4.16 <0.9.0;\r\n\r\ncontract SupplyChain {\r\n    struct Lote {\r\n        string id_lote;\r\n        string lugar_crianza;\r\n        string alimento;\r\n        uint ganado;\r\n        bool transportado; // true si el lote ya fue transportado\r\n        bool elaborado; // true si el lote ya fue sacrificado\r\n        InfoTransporteGanado info_transporte;\r\n        InfoElaboracionCarne info_elaboracion;\r\n        bool init;\r\n    }\r\n    struct InfoTransporteGanado {\r\n        string lugar_origen;\r\n        string lugar_destino;\r\n        string fecha_transporte;\r\n        string tiempo_transporte;\r\n    }\r\n\r\n    struct InfoElaboracionCarne {\r\n        string nombre_matadero;\r\n        string temperatura;\r\n        string humedad;\r\n        string tiempo_elaboracion;\r\n        string fecha_sacrificio;\r\n        string hash_carne;\r\n    }\r\n\r\n    struct Carne {\r\n        string lote;\r\n        InfoTransporteCarne info_transporte;\r\n        bool init;\r\n    }\r\n\r\n    struct InfoTransporteCarne {\r\n        string lugar_origen;\r\n        string lugar_destino;\r\n    }\r\n\r\n    string vacio = \"\";\r\n    string[] lotes;\r\n    mapping(string => Lote) index_lotes;\r\n    mapping(string => Carne) index_carnes;\r\n\r\n    function setLote(string memory hash_lote, \r\n                string memory _id, \r\n                uint _ganado,\r\n                string memory _lugar_crianza, \r\n                string memory _alimento) public {\r\n        require(keccak256(bytes(index_lotes[hash_lote].id_lote)) == keccak256(bytes(vacio)), \"Lote ya registrado.\");\r\n        Lote memory lote;\r\n        lote.id_lote       = _id;\r\n        lote.lugar_crianza = _lugar_crianza;\r\n        lote.alimento      = _alimento;\r\n        lote.ganado        = _ganado;\r\n        lote.init          = true;\r\n        index_lotes[hash_lote] = lote;\r\n        lotes.push(hash_lote);\r\n    }\r\n\r\n    function getLote(string memory hash_lote) public view returns (Lote memory) {\r\n        return index_lotes[hash_lote];\r\n    }\r\n\r\n    function getLotes() public view returns (Lote[] memory) {\r\n        Lote[] memory array_lotes = new Lote[](lotes.length);\r\n        for (uint256 i = 0; i < lotes.length; i++) {\r\n            array_lotes[i] = index_lotes[lotes[i]];\r\n        }\r\n        return array_lotes;\r\n    }\r\n\r\n    function getHashLotes() public view returns (string[] memory) {\r\n        return lotes;\r\n    }\r\n\r\n    function setInfoTransporte(string memory hash_lote,\r\n                                string memory origen,\r\n                                string memory destino,\r\n                                string memory fecha,\r\n                                string memory tiempo) public {\r\n        require(index_lotes[hash_lote].init, \"Lote no existente.\");\r\n        require(!index_lotes[hash_lote].transportado, \"Lote ya transportado.\");\r\n        index_lotes[hash_lote].transportado                      = true;\r\n        index_lotes[hash_lote].info_transporte.lugar_origen      = origen;\r\n        index_lotes[hash_lote].info_transporte.lugar_destino     = destino;\r\n        index_lotes[hash_lote].info_transporte.fecha_transporte  = fecha;\r\n        index_lotes[hash_lote].info_transporte.tiempo_transporte = tiempo;\r\n    }\r\n\r\n    function setInfoElaboracion(string memory hash_lote,\r\n                                string memory matadero,\r\n                                string memory _temperatura,\r\n                                string memory _humedad,\r\n                                string memory tiempo,\r\n                                string memory fecha,\r\n                                string memory codigo_carne) public {\r\n        require(index_lotes[hash_lote].init, \"Lote no existente.\");\r\n        require(!index_lotes[hash_lote].elaborado, \"Lote ya elaborado.\");\r\n        index_lotes[hash_lote].elaborado                           = true;\r\n        index_lotes[hash_lote].info_elaboracion.nombre_matadero    = matadero;\r\n        index_lotes[hash_lote].info_elaboracion.temperatura        = _temperatura;\r\n        index_lotes[hash_lote].info_elaboracion.humedad            = _humedad;\r\n        index_lotes[hash_lote].info_elaboracion.tiempo_elaboracion = tiempo;\r\n        index_lotes[hash_lote].info_elaboracion.fecha_sacrificio   = fecha;\r\n        index_lotes[hash_lote].info_elaboracion.hash_carne         = codigo_carne;\r\n        Carne memory carne;\r\n        carne.lote = hash_lote;\r\n        carne.init = true;\r\n        index_carnes[codigo_carne] = carne;\r\n    }\r\n\r\n    function getInfoCarne(string memory hash_carne) public view returns (Carne memory, Lote memory) {\r\n        string memory hash_lote = index_carnes[hash_carne].lote;\r\n        require(index_carnes[hash_carne].init, \"Carne no existente.\");\r\n        return (index_carnes[hash_carne], index_lotes[hash_lote]);\r\n    }\r\n\r\n    function getCarne(string memory hash_carne) public view returns (Carne memory) {\r\n        return index_carnes[hash_carne];\r\n    }\r\n}",
  "sourcePath": "D:\\Proyectos\\react\\supply-chain-front\\contracts\\SupplyChain.sol",
  "compiler": {
    "name": "solc",
    "version": "0.8.13+commit.abaa5c0e.Emscripten.clang"
  },
  "schemaVersion": "3.4.7",
  "updatedAt": "2022-06-06T16:47:04.792Z",
  "networkType": "ethereum",
  "devdoc": {
    "kind": "dev",
    "methods": {},
    "version": 1
  },
  "userdoc": {
    "kind": "user",
    "methods": {},
    "version": 1
  }
}